{
  "_format": "hh-sol-artifact-1",
  "contractName": "Vikings",
  "sourceName": "contracts/Vikings.sol",
  "abi": [
    {
      "inputs": [
        {
          "internalType": "string[]",
          "name": "vikingNames",
          "type": "string[]"
        },
        {
          "internalType": "string[]",
          "name": "classes",
          "type": "string[]"
        },
        {
          "internalType": "string[]",
          "name": "vikingImageURIs",
          "type": "string[]"
        },
        {
          "internalType": "uint256[]",
          "name": "vikingHp",
          "type": "uint256[]"
        },
        {
          "internalType": "uint256[]",
          "name": "vikingAttackDmg",
          "type": "uint256[]"
        },
        {
          "internalType": "string",
          "name": "bossName",
          "type": "string"
        },
        {
          "internalType": "string",
          "name": "bossImageURI",
          "type": "string"
        },
        {
          "internalType": "uint256",
          "name": "bossHp",
          "type": "uint256"
        },
        {
          "internalType": "uint256",
          "name": "bossAttackDamage",
          "type": "uint256"
        }
      ],
      "stateMutability": "nonpayable",
      "type": "constructor"
    },
    {
      "anonymous": false,
      "inputs": [
        {
          "indexed": true,
          "internalType": "address",
          "name": "owner",
          "type": "address"
        },
        {
          "indexed": true,
          "internalType": "address",
          "name": "approved",
          "type": "address"
        },
        {
          "indexed": true,
          "internalType": "uint256",
          "name": "tokenId",
          "type": "uint256"
        }
      ],
      "name": "Approval",
      "type": "event"
    },
    {
      "anonymous": false,
      "inputs": [
        {
          "indexed": true,
          "internalType": "address",
          "name": "owner",
          "type": "address"
        },
        {
          "indexed": true,
          "internalType": "address",
          "name": "operator",
          "type": "address"
        },
        {
          "indexed": false,
          "internalType": "bool",
          "name": "approved",
          "type": "bool"
        }
      ],
      "name": "ApprovalForAll",
      "type": "event"
    },
    {
      "anonymous": false,
      "inputs": [
        {
          "indexed": false,
          "internalType": "uint256",
          "name": "newBossHp",
          "type": "uint256"
        },
        {
          "indexed": false,
          "internalType": "uint256",
          "name": "newPlayerHp",
          "type": "uint256"
        }
      ],
      "name": "AttackComplete",
      "type": "event"
    },
    {
      "anonymous": false,
      "inputs": [
        {
          "indexed": true,
          "internalType": "address",
          "name": "from",
          "type": "address"
        },
        {
          "indexed": true,
          "internalType": "address",
          "name": "to",
          "type": "address"
        },
        {
          "indexed": true,
          "internalType": "uint256",
          "name": "tokenId",
          "type": "uint256"
        }
      ],
      "name": "Transfer",
      "type": "event"
    },
    {
      "anonymous": false,
      "inputs": [
        {
          "indexed": false,
          "internalType": "address",
          "name": "sender",
          "type": "address"
        },
        {
          "indexed": false,
          "internalType": "uint256",
          "name": "tokenId",
          "type": "uint256"
        },
        {
          "indexed": false,
          "internalType": "uint256",
          "name": "vikingIndex",
          "type": "uint256"
        }
      ],
      "name": "VikingNFTMinted",
      "type": "event"
    },
    {
      "inputs": [
        {
          "internalType": "address",
          "name": "to",
          "type": "address"
        },
        {
          "internalType": "uint256",
          "name": "tokenId",
          "type": "uint256"
        }
      ],
      "name": "approve",
      "outputs": [],
      "stateMutability": "nonpayable",
      "type": "function"
    },
    {
      "inputs": [],
      "name": "attackBoss",
      "outputs": [],
      "stateMutability": "nonpayable",
      "type": "function"
    },
    {
      "inputs": [
        {
          "internalType": "address",
          "name": "owner",
          "type": "address"
        }
      ],
      "name": "balanceOf",
      "outputs": [
        {
          "internalType": "uint256",
          "name": "",
          "type": "uint256"
        }
      ],
      "stateMutability": "view",
      "type": "function"
    },
    {
      "inputs": [],
      "name": "bigBoss",
      "outputs": [
        {
          "internalType": "string",
          "name": "name",
          "type": "string"
        },
        {
          "internalType": "string",
          "name": "imageURI",
          "type": "string"
        },
        {
          "internalType": "uint256",
          "name": "hp",
          "type": "uint256"
        },
        {
          "internalType": "uint256",
          "name": "maxHp",
          "type": "uint256"
        },
        {
          "internalType": "uint256",
          "name": "attackDamage",
          "type": "uint256"
        }
      ],
      "stateMutability": "view",
      "type": "function"
    },
    {
      "inputs": [],
      "name": "checkIfUserHasNFT",
      "outputs": [
        {
          "components": [
            {
              "internalType": "uint256",
              "name": "vikingIndex",
              "type": "uint256"
            },
            {
              "internalType": "string",
              "name": "name",
              "type": "string"
            },
            {
              "internalType": "string",
              "name": "class",
              "type": "string"
            },
            {
              "internalType": "string",
              "name": "imageURI",
              "type": "string"
            },
            {
              "internalType": "uint256",
              "name": "hp",
              "type": "uint256"
            },
            {
              "internalType": "uint256",
              "name": "maxHp",
              "type": "uint256"
            },
            {
              "internalType": "uint256",
              "name": "attackDamage",
              "type": "uint256"
            }
          ],
          "internalType": "struct Vikings.VikingAttributes",
          "name": "",
          "type": "tuple"
        }
      ],
      "stateMutability": "view",
      "type": "function"
    },
    {
      "inputs": [],
      "name": "getAllDefaultVikings",
      "outputs": [
        {
          "components": [
            {
              "internalType": "uint256",
              "name": "vikingIndex",
              "type": "uint256"
            },
            {
              "internalType": "string",
              "name": "name",
              "type": "string"
            },
            {
              "internalType": "string",
              "name": "class",
              "type": "string"
            },
            {
              "internalType": "string",
              "name": "imageURI",
              "type": "string"
            },
            {
              "internalType": "uint256",
              "name": "hp",
              "type": "uint256"
            },
            {
              "internalType": "uint256",
              "name": "maxHp",
              "type": "uint256"
            },
            {
              "internalType": "uint256",
              "name": "attackDamage",
              "type": "uint256"
            }
          ],
          "internalType": "struct Vikings.VikingAttributes[]",
          "name": "",
          "type": "tuple[]"
        }
      ],
      "stateMutability": "view",
      "type": "function"
    },
    {
      "inputs": [
        {
          "internalType": "uint256",
          "name": "tokenId",
          "type": "uint256"
        }
      ],
      "name": "getApproved",
      "outputs": [
        {
          "internalType": "address",
          "name": "",
          "type": "address"
        }
      ],
      "stateMutability": "view",
      "type": "function"
    },
    {
      "inputs": [],
      "name": "getBigBoss",
      "outputs": [
        {
          "components": [
            {
              "internalType": "string",
              "name": "name",
              "type": "string"
            },
            {
              "internalType": "string",
              "name": "imageURI",
              "type": "string"
            },
            {
              "internalType": "uint256",
              "name": "hp",
              "type": "uint256"
            },
            {
              "internalType": "uint256",
              "name": "maxHp",
              "type": "uint256"
            },
            {
              "internalType": "uint256",
              "name": "attackDamage",
              "type": "uint256"
            }
          ],
          "internalType": "struct Vikings.BigBoss",
          "name": "",
          "type": "tuple"
        }
      ],
      "stateMutability": "view",
      "type": "function"
    },
    {
      "inputs": [
        {
          "internalType": "address",
          "name": "owner",
          "type": "address"
        },
        {
          "internalType": "address",
          "name": "operator",
          "type": "address"
        }
      ],
      "name": "isApprovedForAll",
      "outputs": [
        {
          "internalType": "bool",
          "name": "",
          "type": "bool"
        }
      ],
      "stateMutability": "view",
      "type": "function"
    },
    {
      "inputs": [
        {
          "internalType": "uint256",
          "name": "_vikingIndex",
          "type": "uint256"
        }
      ],
      "name": "mintVikingNFT",
      "outputs": [],
      "stateMutability": "nonpayable",
      "type": "function"
    },
    {
      "inputs": [],
      "name": "name",
      "outputs": [
        {
          "internalType": "string",
          "name": "",
          "type": "string"
        }
      ],
      "stateMutability": "view",
      "type": "function"
    },
    {
      "inputs": [
        {
          "internalType": "uint256",
          "name": "",
          "type": "uint256"
        }
      ],
      "name": "nftHolderAttributes",
      "outputs": [
        {
          "internalType": "uint256",
          "name": "vikingIndex",
          "type": "uint256"
        },
        {
          "internalType": "string",
          "name": "name",
          "type": "string"
        },
        {
          "internalType": "string",
          "name": "class",
          "type": "string"
        },
        {
          "internalType": "string",
          "name": "imageURI",
          "type": "string"
        },
        {
          "internalType": "uint256",
          "name": "hp",
          "type": "uint256"
        },
        {
          "internalType": "uint256",
          "name": "maxHp",
          "type": "uint256"
        },
        {
          "internalType": "uint256",
          "name": "attackDamage",
          "type": "uint256"
        }
      ],
      "stateMutability": "view",
      "type": "function"
    },
    {
      "inputs": [
        {
          "internalType": "address",
          "name": "",
          "type": "address"
        }
      ],
      "name": "nftHolders",
      "outputs": [
        {
          "internalType": "uint256",
          "name": "",
          "type": "uint256"
        }
      ],
      "stateMutability": "view",
      "type": "function"
    },
    {
      "inputs": [
        {
          "internalType": "uint256",
          "name": "tokenId",
          "type": "uint256"
        }
      ],
      "name": "ownerOf",
      "outputs": [
        {
          "internalType": "address",
          "name": "",
          "type": "address"
        }
      ],
      "stateMutability": "view",
      "type": "function"
    },
    {
      "inputs": [
        {
          "internalType": "address",
          "name": "from",
          "type": "address"
        },
        {
          "internalType": "address",
          "name": "to",
          "type": "address"
        },
        {
          "internalType": "uint256",
          "name": "tokenId",
          "type": "uint256"
        }
      ],
      "name": "safeTransferFrom",
      "outputs": [],
      "stateMutability": "nonpayable",
      "type": "function"
    },
    {
      "inputs": [
        {
          "internalType": "address",
          "name": "from",
          "type": "address"
        },
        {
          "internalType": "address",
          "name": "to",
          "type": "address"
        },
        {
          "internalType": "uint256",
          "name": "tokenId",
          "type": "uint256"
        },
        {
          "internalType": "bytes",
          "name": "_data",
          "type": "bytes"
        }
      ],
      "name": "safeTransferFrom",
      "outputs": [],
      "stateMutability": "nonpayable",
      "type": "function"
    },
    {
      "inputs": [
        {
          "internalType": "address",
          "name": "operator",
          "type": "address"
        },
        {
          "internalType": "bool",
          "name": "approved",
          "type": "bool"
        }
      ],
      "name": "setApprovalForAll",
      "outputs": [],
      "stateMutability": "nonpayable",
      "type": "function"
    },
    {
      "inputs": [
        {
          "internalType": "bytes4",
          "name": "interfaceId",
          "type": "bytes4"
        }
      ],
      "name": "supportsInterface",
      "outputs": [
        {
          "internalType": "bool",
          "name": "",
          "type": "bool"
        }
      ],
      "stateMutability": "view",
      "type": "function"
    },
    {
      "inputs": [],
      "name": "symbol",
      "outputs": [
        {
          "internalType": "string",
          "name": "",
          "type": "string"
        }
      ],
      "stateMutability": "view",
      "type": "function"
    },
    {
      "inputs": [
        {
          "internalType": "uint256",
          "name": "_tokenId",
          "type": "uint256"
        }
      ],
      "name": "tokenURI",
      "outputs": [
        {
          "internalType": "string",
          "name": "",
          "type": "string"
        }
      ],
      "stateMutability": "view",
      "type": "function"
    },
    {
      "inputs": [
        {
          "internalType": "address",
          "name": "from",
          "type": "address"
        },
        {
          "internalType": "address",
          "name": "to",
          "type": "address"
        },
        {
          "internalType": "uint256",
          "name": "tokenId",
          "type": "uint256"
        }
      ],
      "name": "transferFrom",
      "outputs": [],
      "stateMutability": "nonpayable",
      "type": "function"
    }
  ],
  "bytecode": "0x60806040523480156200001157600080fd5b50604051620061a6380380620061a6833981810160405281019062000037919062000d13565b6040518060400160405280600781526020017f56696b696e6773000000000000000000000000000000000000000000000000008152506040518060400160405280600681526020017f76696b696e6700000000000000000000000000000000000000000000000000008152508160009080519060200190620000bb92919062000a7b565b508060019080519060200190620000d492919062000a7b565b5050506040518060a0016040528085815260200184815260200183815260200183815260200182815250600660008201518160000190805190602001906200011e92919062000a7b565b5060208201518160010190805190602001906200013d92919062000a7b565b50604082015181600201556060820151816003015560808201518160040155905050620002c06040518060600160405280602a81526020016200617c602a9139600660000180546200018f9062001115565b80601f0160208091040260200160405190810160405280929190818152602001828054620001bd9062001115565b80156200020e5780601f10620001e2576101008083540402835291602001916200020e565b820191906000526020600020905b815481529060010190602001808311620001f057829003601f168201915b5050505050600660020154600660010180546200022b9062001115565b80601f0160208091040260200160405190810160405280929190818152602001828054620002599062001115565b8015620002aa5780601f106200027e57610100808354040283529160200191620002aa565b820191906000526020600020905b8154815290600101906020018083116200028c57829003601f168201915b50505050506200083b60201b620020781760201c565b60005b89518110156200081457600c6040518060e001604052808381526020018c84815181106200031a577f4e487b7100000000000000000000000000000000000000000000000000000000600052603260045260246000fd5b602002602001015181526020018b848151811062000361577f4e487b7100000000000000000000000000000000000000000000000000000000600052603260045260246000fd5b602002602001015181526020018a8481518110620003a8577f4e487b7100000000000000000000000000000000000000000000000000000000600052603260045260246000fd5b60200260200101518152602001898481518110620003ef577f4e487b7100000000000000000000000000000000000000000000000000000000600052603260045260246000fd5b6020026020010151815260200189848151811062000436577f4e487b7100000000000000000000000000000000000000000000000000000000600052603260045260246000fd5b602002602001015181526020018884815181106200047d577f4e487b7100000000000000000000000000000000000000000000000000000000600052603260045260246000fd5b60200260200101518152509080600181540180825580915050600190039060005260206000209060070201600090919091909150600082015181600001556020820151816001019080519060200190620004d992919062000a7b565b506040820151816002019080519060200190620004f892919062000a7b565b5060608201518160030190805190602001906200051792919062000a7b565b506080820151816004015560a0820151816005015560c0820151816006015550506000600c828154811062000575577f4e487b7100000000000000000000000000000000000000000000000000000000600052603260045260246000fd5b90600052602060002090600702016040518060e001604052908160008201548152602001600182018054620005aa9062001115565b80601f0160208091040260200160405190810160405280929190818152602001828054620005d89062001115565b8015620006295780601f10620005fd5761010080835404028352916020019162000629565b820191906000526020600020905b8154815290600101906020018083116200060b57829003601f168201915b50505050508152602001600282018054620006449062001115565b80601f0160208091040260200160405190810160405280929190818152602001828054620006729062001115565b8015620006c35780601f106200069757610100808354040283529160200191620006c3565b820191906000526020600020905b815481529060010190602001808311620006a557829003601f168201915b50505050508152602001600382018054620006de9062001115565b80601f01602080910402602001604051908101604052809291908181526020018280546200070c9062001115565b80156200075d5780601f1062000731576101008083540402835291602001916200075d565b820191906000526020600020905b8154815290600101906020018083116200073f57829003601f168201915b5050505050815260200160048201548152602001600582015481526020016006820154815250509050620007bf604051806060016040528060268152602001620061336026913982602001518360400151620008e760201b6200211a1760201c565b620007fd604051806060016040528060238152602001620061596023913982608001518360c0015184606001516200099060201b620021b91760201c565b5080806200080b9062001181565b915050620002c3565b506200082c600b62000a3c60201b6200225b1760201c565b50505050505050505062001287565b620008e18484848460405160240162000858949392919062000f3f565b6040516020818303038152906040527f8d142cdd000000000000000000000000000000000000000000000000000000007bffffffffffffffffffffffffffffffffffffffffffffffffffffffff19166020820180517bffffffffffffffffffffffffffffffffffffffffffffffffffffffff838183161783525050505062000a5260201b60201c565b50505050565b6200098b838383604051602401620009029392919062000eed565b6040516020818303038152906040527f2ced7cef000000000000000000000000000000000000000000000000000000007bffffffffffffffffffffffffffffffffffffffffffffffffffffffff19166020820180517bffffffffffffffffffffffffffffffffffffffffffffffffffffffff838183161783525050505062000a5260201b60201c565b505050565b62000a3684848484604051602401620009ad949392919062000fa1565b6040516020818303038152906040527fa54ed4bd000000000000000000000000000000000000000000000000000000007bffffffffffffffffffffffffffffffffffffffffffffffffffffffff19166020820180517bffffffffffffffffffffffffffffffffffffffffffffffffffffffff838183161783525050505062000a5260201b60201c565b50505050565b6001816000016000828254019250508190555050565b60008151905060006a636f6e736f6c652e6c6f679050602083016000808483855afa5050505050565b82805462000a899062001115565b90600052602060002090601f01602090048101928262000aad576000855562000af9565b82601f1062000ac857805160ff191683800117855562000af9565b8280016001018555821562000af9579182015b8281111562000af857825182559160200191906001019062000adb565b5b50905062000b08919062000b0c565b5090565b5b8082111562000b2757600081600090555060010162000b0d565b5090565b600062000b4262000b3c8462001025565b62000ffc565b9050808382526020820190508285602086028201111562000b6257600080fd5b60005b8581101562000bb157815167ffffffffffffffff81111562000b8657600080fd5b80860162000b95898262000ccf565b8552602085019450602084019350505060018101905062000b65565b5050509392505050565b600062000bd262000bcc8462001054565b62000ffc565b9050808382526020820190508285602086028201111562000bf257600080fd5b60005b8581101562000c26578162000c0b888262000cfc565b84526020840193506020830192505060018101905062000bf5565b5050509392505050565b600062000c4762000c418462001083565b62000ffc565b90508281526020810184848401111562000c6057600080fd5b62000c6d848285620010df565b509392505050565b600082601f83011262000c8757600080fd5b815162000c9984826020860162000b2b565b91505092915050565b600082601f83011262000cb457600080fd5b815162000cc684826020860162000bbb565b91505092915050565b600082601f83011262000ce157600080fd5b815162000cf384826020860162000c30565b91505092915050565b60008151905062000d0d816200126d565b92915050565b60008060008060008060008060006101208a8c03121562000d3357600080fd5b60008a015167ffffffffffffffff81111562000d4e57600080fd5b62000d5c8c828d0162000c75565b99505060208a015167ffffffffffffffff81111562000d7a57600080fd5b62000d888c828d0162000c75565b98505060408a015167ffffffffffffffff81111562000da657600080fd5b62000db48c828d0162000c75565b97505060608a015167ffffffffffffffff81111562000dd257600080fd5b62000de08c828d0162000ca2565b96505060808a015167ffffffffffffffff81111562000dfe57600080fd5b62000e0c8c828d0162000ca2565b95505060a08a015167ffffffffffffffff81111562000e2a57600080fd5b62000e388c828d0162000ccf565b94505060c08a015167ffffffffffffffff81111562000e5657600080fd5b62000e648c828d0162000ccf565b93505060e062000e778c828d0162000cfc565b92505061010062000e8b8c828d0162000cfc565b9150509295985092959850929598565b600062000ea882620010b9565b62000eb48185620010c4565b935062000ec6818560208601620010df565b62000ed1816200125c565b840191505092915050565b62000ee781620010d5565b82525050565b6000606082019050818103600083015262000f09818662000e9b565b9050818103602083015262000f1f818562000e9b565b9050818103604083015262000f35818462000e9b565b9050949350505050565b6000608082019050818103600083015262000f5b818762000e9b565b9050818103602083015262000f71818662000e9b565b905062000f82604083018562000edc565b818103606083015262000f96818462000e9b565b905095945050505050565b6000608082019050818103600083015262000fbd818762000e9b565b905062000fce602083018662000edc565b62000fdd604083018562000edc565b818103606083015262000ff1818462000e9b565b905095945050505050565b6000620010086200101b565b90506200101682826200114b565b919050565b6000604051905090565b600067ffffffffffffffff8211156200104357620010426200122d565b5b602082029050602081019050919050565b600067ffffffffffffffff8211156200107257620010716200122d565b5b602082029050602081019050919050565b600067ffffffffffffffff821115620010a157620010a06200122d565b5b620010ac826200125c565b9050602081019050919050565b600081519050919050565b600082825260208201905092915050565b6000819050919050565b60005b83811015620010ff578082015181840152602081019050620010e2565b838111156200110f576000848401525b50505050565b600060028204905060018216806200112e57607f821691505b60208210811415620011455762001144620011fe565b5b50919050565b62001156826200125c565b810181811067ffffffffffffffff821117156200117857620011776200122d565b5b80604052505050565b60006200118e82620010d5565b91507fffffffffffffffffffffffffffffffffffffffffffffffffffffffffffffffff821415620011c457620011c3620011cf565b5b600182019050919050565b7f4e487b7100000000000000000000000000000000000000000000000000000000600052601160045260246000fd5b7f4e487b7100000000000000000000000000000000000000000000000000000000600052602260045260246000fd5b7f4e487b7100000000000000000000000000000000000000000000000000000000600052604160045260246000fd5b6000601f19601f8301169050919050565b6200127881620010d5565b81146200128457600080fd5b50565b614e9c80620012976000396000f3fe608060405234801561001057600080fd5b50600436106101375760003560e01c80637df124a1116100b8578063a9c326791161007c578063a9c3267914610366578063b88d4fde14610388578063c87b56dd146103a4578063c8cf27f4146103d4578063d4f24c5b146103f2578063e985e9c5146103fc57610137565b80637df124a1146102aa578063911c70a6146102da57806395d89b41146102f657806398da4c9514610314578063a22cb4651461034a57610137565b806323b872dd116100ff57806323b872dd146101f457806342842e0e146102105780636352211e1461022c57806363dc87541461025c57806370a082311461027a57610137565b806301ffc9a71461013c5780630665f9611461016c57806306fdde031461018a578063081812fc146101a8578063095ea7b3146101d8575b600080fd5b6101566004803603810190610151919061349a565b61042c565b6040516101639190613d6e565b60405180910390f35b61017461050e565b60405161018191906141a6565b60405180910390f35b61019261066a565b60405161019f9190613d89565b60405180910390f35b6101c260048036038101906101bd91906134ec565b6106fc565b6040516101cf9190613cae565b60405180910390f35b6101f260048036038101906101ed919061345e565b610781565b005b61020e60048036038101906102099190613358565b610899565b005b61022a60048036038101906102259190613358565b6108f9565b005b610246600480360381019061024191906134ec565b610919565b6040516102539190613cae565b60405180910390f35b6102646109cb565b6040516102719190613d4c565b60405180910390f35b610294600480360381019061028f91906132f3565b610c08565b6040516102a191906141ea565b60405180910390f35b6102c460048036038101906102bf91906132f3565b610cc0565b6040516102d191906141ea565b60405180910390f35b6102f460048036038101906102ef91906134ec565b610cd8565b005b6102fe6111c2565b60405161030b9190613d89565b60405180910390f35b61032e600480360381019061032991906134ec565b611254565b6040516103419796959493929190614205565b60405180910390f35b610364600480360381019061035f9190613422565b61142e565b005b61036e6115af565b60405161037f959493929190613ea4565b60405180910390f35b6103a2600480360381019061039d91906133a7565b6116e3565b005b6103be60048036038101906103b991906134ec565b611745565b6040516103cb9190613d89565b60405180910390f35b6103dc6119f8565b6040516103e991906141c8565b60405180910390f35b6103fa611c62565b005b6104166004803603810190610411919061331c565b611fe4565b6040516104239190613d6e565b60405180910390f35b60007f80ac58cd000000000000000000000000000000000000000000000000000000007bffffffffffffffffffffffffffffffffffffffffffffffffffffffff1916827bffffffffffffffffffffffffffffffffffffffffffffffffffffffff191614806104f757507f5b5e139f000000000000000000000000000000000000000000000000000000007bffffffffffffffffffffffffffffffffffffffffffffffffffffffff1916827bffffffffffffffffffffffffffffffffffffffffffffffffffffffff1916145b80610507575061050682612271565b5b9050919050565b610516613113565b60066040518060a001604052908160008201805461053390614560565b80601f016020809104026020016040519081016040528092919081815260200182805461055f90614560565b80156105ac5780601f10610581576101008083540402835291602001916105ac565b820191906000526020600020905b81548152906001019060200180831161058f57829003601f168201915b505050505081526020016001820180546105c590614560565b80601f01602080910402602001604051908101604052809291908181526020018280546105f190614560565b801561063e5780601f106106135761010080835404028352916020019161063e565b820191906000526020600020905b81548152906001019060200180831161062157829003601f168201915b505050505081526020016002820154815260200160038201548152602001600482015481525050905090565b60606000805461067990614560565b80601f01602080910402602001604051908101604052809291908181526020018280546106a590614560565b80156106f25780601f106106c7576101008083540402835291602001916106f2565b820191906000526020600020905b8154815290600101906020018083116106d557829003601f168201915b5050505050905090565b6000610707826122db565b610746576040517f08c379a000000000000000000000000000000000000000000000000000000000815260040161073d90614126565b60405180910390fd5b6004600083815260200190815260200160002060009054906101000a900473ffffffffffffffffffffffffffffffffffffffff169050919050565b600061078c82610919565b90508073ffffffffffffffffffffffffffffffffffffffff168373ffffffffffffffffffffffffffffffffffffffff1614156107fd576040517f08c379a00000000000000000000000000000000000000000000000000000000081526004016107f490614166565b60405180910390fd5b8073ffffffffffffffffffffffffffffffffffffffff1661081c612347565b73ffffffffffffffffffffffffffffffffffffffff16148061084b575061084a81610845612347565b611fe4565b5b61088a576040517f08c379a000000000000000000000000000000000000000000000000000000000815260040161088190614086565b60405180910390fd5b610894838361234f565b505050565b6108aa6108a4612347565b82612408565b6108e9576040517f08c379a00000000000000000000000000000000000000000000000000000000081526004016108e090614186565b60405180910390fd5b6108f48383836124e6565b505050565b610914838383604051806020016040528060008152506116e3565b505050565b6000806002600084815260200190815260200160002060009054906101000a900473ffffffffffffffffffffffffffffffffffffffff169050600073ffffffffffffffffffffffffffffffffffffffff168173ffffffffffffffffffffffffffffffffffffffff1614156109c2576040517f08c379a00000000000000000000000000000000000000000000000000000000081526004016109b9906140c6565b60405180910390fd5b80915050919050565b6060600c805480602002602001604051908101604052809291908181526020016000905b82821015610bff57838290600052602060002090600702016040518060e001604052908160008201548152602001600182018054610a2c90614560565b80601f0160208091040260200160405190810160405280929190818152602001828054610a5890614560565b8015610aa55780601f10610a7a57610100808354040283529160200191610aa5565b820191906000526020600020905b815481529060010190602001808311610a8857829003601f168201915b50505050508152602001600282018054610abe90614560565b80601f0160208091040260200160405190810160405280929190818152602001828054610aea90614560565b8015610b375780601f10610b0c57610100808354040283529160200191610b37565b820191906000526020600020905b815481529060010190602001808311610b1a57829003601f168201915b50505050508152602001600382018054610b5090614560565b80601f0160208091040260200160405190810160405280929190818152602001828054610b7c90614560565b8015610bc95780601f10610b9e57610100808354040283529160200191610bc9565b820191906000526020600020905b815481529060010190602001808311610bac57829003601f168201915b505050505081526020016004820154815260200160058201548152602001600682015481525050815260200190600101906109ef565b50505050905090565b60008073ffffffffffffffffffffffffffffffffffffffff168273ffffffffffffffffffffffffffffffffffffffff161415610c79576040517f08c379a0000000000000000000000000000000000000000000000000000000008152600401610c70906140a6565b60405180910390fd5b600360008373ffffffffffffffffffffffffffffffffffffffff1673ffffffffffffffffffffffffffffffffffffffff168152602001908152602001600020549050919050565b600e6020528060005260406000206000915090505481565b6000610ce4600b612742565b9050610cf03382612750565b6040518060e00160405280838152602001600c8481548110610d3b577f4e487b7100000000000000000000000000000000000000000000000000000000600052603260045260246000fd5b90600052602060002090600702016001018054610d5790614560565b80601f0160208091040260200160405190810160405280929190818152602001828054610d8390614560565b8015610dd05780601f10610da557610100808354040283529160200191610dd0565b820191906000526020600020905b815481529060010190602001808311610db357829003601f168201915b50505050508152602001600c8481548110610e14577f4e487b7100000000000000000000000000000000000000000000000000000000600052603260045260246000fd5b90600052602060002090600702016002018054610e3090614560565b80601f0160208091040260200160405190810160405280929190818152602001828054610e5c90614560565b8015610ea95780601f10610e7e57610100808354040283529160200191610ea9565b820191906000526020600020905b815481529060010190602001808311610e8c57829003601f168201915b50505050508152602001600c8481548110610eed577f4e487b7100000000000000000000000000000000000000000000000000000000600052603260045260246000fd5b90600052602060002090600702016003018054610f0990614560565b80601f0160208091040260200160405190810160405280929190818152602001828054610f3590614560565b8015610f825780601f10610f5757610100808354040283529160200191610f82565b820191906000526020600020905b815481529060010190602001808311610f6557829003601f168201915b50505050508152602001600c8481548110610fc6577f4e487b7100000000000000000000000000000000000000000000000000000000600052603260045260246000fd5b9060005260206000209060070201600401548152602001600c8481548110611017577f4e487b7100000000000000000000000000000000000000000000000000000000600052603260045260246000fd5b9060005260206000209060070201600401548152602001600c8481548110611068577f4e487b7100000000000000000000000000000000000000000000000000000000600052603260045260246000fd5b906000526020600020906007020160060154815250600d60008381526020019081526020016000206000820151816000015560208201518160010190805190602001906110b6929190613142565b5060408201518160020190805190602001906110d3929190613142565b5060608201518160030190805190602001906110f0929190613142565b506080820151816004015560a0820151816005015560c08201518160060155905050611135604051806060016040528060248152602001614d9f60249139828461276e565b80600e60003373ffffffffffffffffffffffffffffffffffffffff1673ffffffffffffffffffffffffffffffffffffffff16815260200190815260200160002081905550611183600b61225b565b7f20f37f9ab53d1e7b16065634de11451b002a9747121cc9e301d18cc49fc9fbd63382846040516111b693929190613d15565b60405180910390a15050565b6060600180546111d190614560565b80601f01602080910402602001604051908101604052809291908181526020018280546111fd90614560565b801561124a5780601f1061121f5761010080835404028352916020019161124a565b820191906000526020600020905b81548152906001019060200180831161122d57829003601f168201915b5050505050905090565b600d60205280600052604060002060009150905080600001549080600101805461127d90614560565b80601f01602080910402602001604051908101604052809291908181526020018280546112a990614560565b80156112f65780601f106112cb576101008083540402835291602001916112f6565b820191906000526020600020905b8154815290600101906020018083116112d957829003601f168201915b50505050509080600201805461130b90614560565b80601f016020809104026020016040519081016040528092919081815260200182805461133790614560565b80156113845780601f1061135957610100808354040283529160200191611384565b820191906000526020600020905b81548152906001019060200180831161136757829003601f168201915b50505050509080600301805461139990614560565b80601f01602080910402602001604051908101604052809291908181526020018280546113c590614560565b80156114125780601f106113e757610100808354040283529160200191611412565b820191906000526020600020905b8154815290600101906020018083116113f557829003601f168201915b5050505050908060040154908060050154908060060154905087565b611436612347565b73ffffffffffffffffffffffffffffffffffffffff168273ffffffffffffffffffffffffffffffffffffffff1614156114a4576040517f08c379a000000000000000000000000000000000000000000000000000000000815260040161149b90614046565b60405180910390fd5b80600560006114b1612347565b73ffffffffffffffffffffffffffffffffffffffff1673ffffffffffffffffffffffffffffffffffffffff16815260200190815260200160002060008473ffffffffffffffffffffffffffffffffffffffff1673ffffffffffffffffffffffffffffffffffffffff16815260200190815260200160002060006101000a81548160ff0219169083151502179055508173ffffffffffffffffffffffffffffffffffffffff1661155e612347565b73ffffffffffffffffffffffffffffffffffffffff167f17307eab39ab6107e8899845ad3d59bd9653f200f220920489ca2b5937696c31836040516115a39190613d6e565b60405180910390a35050565b60068060000180546115c090614560565b80601f01602080910402602001604051908101604052809291908181526020018280546115ec90614560565b80156116395780601f1061160e57610100808354040283529160200191611639565b820191906000526020600020905b81548152906001019060200180831161161c57829003601f168201915b50505050509080600101805461164e90614560565b80601f016020809104026020016040519081016040528092919081815260200182805461167a90614560565b80156116c75780601f1061169c576101008083540402835291602001916116c7565b820191906000526020600020905b8154815290600101906020018083116116aa57829003601f168201915b5050505050908060020154908060030154908060040154905085565b6116f46116ee612347565b83612408565b611733576040517f08c379a000000000000000000000000000000000000000000000000000000000815260040161172a90614186565b60405180910390fd5b61173f8484848461280d565b50505050565b60606000600d60008481526020019081526020016000206040518060e00160405290816000820154815260200160018201805461178190614560565b80601f01602080910402602001604051908101604052809291908181526020018280546117ad90614560565b80156117fa5780601f106117cf576101008083540402835291602001916117fa565b820191906000526020600020905b8154815290600101906020018083116117dd57829003601f168201915b5050505050815260200160028201805461181390614560565b80601f016020809104026020016040519081016040528092919081815260200182805461183f90614560565b801561188c5780601f106118615761010080835404028352916020019161188c565b820191906000526020600020905b81548152906001019060200180831161186f57829003601f168201915b505050505081526020016003820180546118a590614560565b80601f01602080910402602001604051908101604052809291908181526020018280546118d190614560565b801561191e5780601f106118f35761010080835404028352916020019161191e565b820191906000526020600020905b81548152906001019060200180831161190157829003601f168201915b505050505081526020016004820154815260200160058201548152602001600682015481525050905060006119568260800151612869565b905060006119678360a00151612869565b905060006119788460c00151612869565b905060006119c4856020015161198d89612869565b876060015188604001518888886040516020016119b09796959493929190613bcf565b604051602081830303815290604052612a16565b90506000816040516020016119d99190613c8c565b6040516020818303038152906040529050809650505050505050919050565b611a006131c8565b6000600e60003373ffffffffffffffffffffffffffffffffffffffff1673ffffffffffffffffffffffffffffffffffffffff1681526020019081526020016000205490506000811115611c5157600d60008281526020019081526020016000206040518060e001604052908160008201548152602001600182018054611a8590614560565b80601f0160208091040260200160405190810160405280929190818152602001828054611ab190614560565b8015611afe5780601f10611ad357610100808354040283529160200191611afe565b820191906000526020600020905b815481529060010190602001808311611ae157829003601f168201915b50505050508152602001600282018054611b1790614560565b80601f0160208091040260200160405190810160405280929190818152602001828054611b4390614560565b8015611b905780601f10611b6557610100808354040283529160200191611b90565b820191906000526020600020905b815481529060010190602001808311611b7357829003601f168201915b50505050508152602001600382018054611ba990614560565b80601f0160208091040260200160405190810160405280929190818152602001828054611bd590614560565b8015611c225780601f10611bf757610100808354040283529160200191611c22565b820191906000526020600020905b815481529060010190602001808311611c0557829003601f168201915b505050505081526020016004820154815260200160058201548152602001600682015481525050915050611c5f565b611c596131c8565b80925050505b90565b6000600e60003373ffffffffffffffffffffffffffffffffffffffff1673ffffffffffffffffffffffffffffffffffffffff1681526020019081526020016000205490506000600d60008381526020019081526020016000209050611d756040518060600160405280603c8152602001614e2b603c9139826001018054611ce890614560565b80601f0160208091040260200160405190810160405280929190818152602001828054611d1490614560565b8015611d615780601f10611d3657610100808354040283529160200191611d61565b820191906000526020600020905b815481529060010190602001808311611d4457829003601f168201915b505050505083600401548460060154612bd4565b611e4d6040518060400160405280601b81526020017f426f73732025732068617320257320485020616e64202573204144000000000081525060066000018054611dbe90614560565b80601f0160208091040260200160405190810160405280929190818152602001828054611dea90614560565b8015611e375780601f10611e0c57610100808354040283529160200191611e37565b820191906000526020600020905b815481529060010190602001808311611e1a57829003601f168201915b5050505050600660020154600660040154612bd4565b60006006600201541415611e6b576006600301546006600201819055505b6000816004015411611eb2576040517f08c379a0000000000000000000000000000000000000000000000000000000008152600401611ea9906140e6565b60405180910390fd5b600060066002015411611efa576040517f08c379a0000000000000000000000000000000000000000000000000000000008152600401611ef190613fe6565b60405180910390fd5b80600601546006600201541015611f1b576000600660020181905550611f3a565b8060060154600660020154611f309190614476565b6006600201819055505b60066004015481600401541015611f5a5760008160040181905550611f78565b6006600401548160040154611f6f9190614476565b81600401819055505b611f9e604051806060016040528060288152602001614e03602891398260040154612c76565b7f838ab28464562786a6c4ab2311964b82fa60bd9b14aa7e856af1f3f18d41a4146006600201548260040154604051611fd8929190614289565b60405180910390a15050565b6000600560008473ffffffffffffffffffffffffffffffffffffffff1673ffffffffffffffffffffffffffffffffffffffff16815260200190815260200160002060008373ffffffffffffffffffffffffffffffffffffffff1673ffffffffffffffffffffffffffffffffffffffff16815260200190815260200160002060009054906101000a900460ff16905092915050565b612114848484846040516024016120929493929190613df7565b6040516020818303038152906040527f8d142cdd000000000000000000000000000000000000000000000000000000007bffffffffffffffffffffffffffffffffffffffffffffffffffffffff19166020820180517bffffffffffffffffffffffffffffffffffffffffffffffffffffffff8381831617835250505050612d12565b50505050565b6121b483838360405160240161213293929190613dab565b6040516020818303038152906040527f2ced7cef000000000000000000000000000000000000000000000000000000007bffffffffffffffffffffffffffffffffffffffffffffffffffffffff19166020820180517bffffffffffffffffffffffffffffffffffffffffffffffffffffffff8381831617835250505050612d12565b505050565b612255848484846040516024016121d39493929190613f73565b6040516020818303038152906040527fa54ed4bd000000000000000000000000000000000000000000000000000000007bffffffffffffffffffffffffffffffffffffffffffffffffffffffff19166020820180517bffffffffffffffffffffffffffffffffffffffffffffffffffffffff8381831617835250505050612d12565b50505050565b6001816000016000828254019250508190555050565b60007f01ffc9a7000000000000000000000000000000000000000000000000000000007bffffffffffffffffffffffffffffffffffffffffffffffffffffffff1916827bffffffffffffffffffffffffffffffffffffffffffffffffffffffff1916149050919050565b60008073ffffffffffffffffffffffffffffffffffffffff166002600084815260200190815260200160002060009054906101000a900473ffffffffffffffffffffffffffffffffffffffff1673ffffffffffffffffffffffffffffffffffffffff1614159050919050565b600033905090565b816004600083815260200190815260200160002060006101000a81548173ffffffffffffffffffffffffffffffffffffffff021916908373ffffffffffffffffffffffffffffffffffffffff160217905550808273ffffffffffffffffffffffffffffffffffffffff166123c283610919565b73ffffffffffffffffffffffffffffffffffffffff167f8c5be1e5ebec7d5bd14f71427d1e84f3dd0314c0f7b2291e5b200ac8c7c3b92560405160405180910390a45050565b6000612413826122db565b612452576040517f08c379a000000000000000000000000000000000000000000000000000000000815260040161244990614066565b60405180910390fd5b600061245d83610919565b90508073ffffffffffffffffffffffffffffffffffffffff168473ffffffffffffffffffffffffffffffffffffffff1614806124cc57508373ffffffffffffffffffffffffffffffffffffffff166124b4846106fc565b73ffffffffffffffffffffffffffffffffffffffff16145b806124dd57506124dc8185611fe4565b5b91505092915050565b8273ffffffffffffffffffffffffffffffffffffffff1661250682610919565b73ffffffffffffffffffffffffffffffffffffffff161461255c576040517f08c379a000000000000000000000000000000000000000000000000000000000815260040161255390614146565b60405180910390fd5b600073ffffffffffffffffffffffffffffffffffffffff168273ffffffffffffffffffffffffffffffffffffffff1614156125cc576040517f08c379a00000000000000000000000000000000000000000000000000000000081526004016125c390614026565b60405180910390fd5b6125d7838383612d3b565b6125e260008261234f565b6001600360008573ffffffffffffffffffffffffffffffffffffffff1673ffffffffffffffffffffffffffffffffffffffff16815260200190815260200160002060008282546126329190614476565b925050819055506001600360008473ffffffffffffffffffffffffffffffffffffffff1673ffffffffffffffffffffffffffffffffffffffff16815260200190815260200160002060008282546126899190614395565b92505081905550816002600083815260200190815260200160002060006101000a81548173ffffffffffffffffffffffffffffffffffffffff021916908373ffffffffffffffffffffffffffffffffffffffff160217905550808273ffffffffffffffffffffffffffffffffffffffff168473ffffffffffffffffffffffffffffffffffffffff167fddf252ad1be2c89b69c2b068fc378daa952ba7f163c4a11628f55a4df523b3ef60405160405180910390a4505050565b600081600001549050919050565b61276a828260405180602001604052806000815250612d40565b5050565b61280883838360405160240161278693929190613f35565b6040516020818303038152906040527f969cdd03000000000000000000000000000000000000000000000000000000007bffffffffffffffffffffffffffffffffffffffffffffffffffffffff19166020820180517bffffffffffffffffffffffffffffffffffffffffffffffffffffffff8381831617835250505050612d12565b505050565b6128188484846124e6565b61282484848484612d9b565b612863576040517f08c379a000000000000000000000000000000000000000000000000000000000815260040161285a90613fc6565b60405180910390fd5b50505050565b606060008214156128b1576040518060400160405280600181526020017f30000000000000000000000000000000000000000000000000000000000000008152509050612a11565b600082905060005b600082146128e35780806128cc906145c3565b915050600a826128dc91906143eb565b91506128b9565b60008167ffffffffffffffff811115612925577f4e487b7100000000000000000000000000000000000000000000000000000000600052604160045260246000fd5b6040519080825280601f01601f1916602001820160405280156129575781602001600182028036833780820191505090505b5090505b60008514612a0a576001826129709190614476565b9150600a8561297f919061460c565b603061298b9190614395565b60f81b8183815181106129c7577f4e487b7100000000000000000000000000000000000000000000000000000000600052603260045260246000fd5b60200101907effffffffffffffffffffffffffffffffffffffffffffffffffffffffffffff1916908160001a905350600a85612a0391906143eb565b945061295b565b8093505050505b919050565b60606000825190506000811415612a3f5760405180602001604052806000815250915050612bcf565b60006003600283612a509190614395565b612a5a91906143eb565b6004612a66919061441c565b90506000602082612a779190614395565b67ffffffffffffffff811115612ab6577f4e487b7100000000000000000000000000000000000000000000000000000000600052604160045260246000fd5b6040519080825280601f01601f191660200182016040528015612ae85781602001600182028036833780820191505090505b5090506000604051806060016040528060408152602001614dc3604091399050600181016020830160005b86811015612b8c5760038101905062ffffff818a015116603f8160121c168401518060081b905060ff603f83600c1c1686015116810190508060081b905060ff603f8360061c1686015116810190508060081b905060ff603f831686015116810190508060e01b90508084526004840193505050612b13565b506003860660018114612ba65760028114612bb657612bc1565b613d3d60f01b6002830352612bc1565b603d60f81b60018303525b508484525050819450505050505b919050565b612c7084848484604051602401612bee9493929190613e51565b6040516020818303038152906040527fd5cf17d0000000000000000000000000000000000000000000000000000000007bffffffffffffffffffffffffffffffffffffffffffffffffffffffff19166020820180517bffffffffffffffffffffffffffffffffffffffffffffffffffffffff8381831617835250505050612d12565b50505050565b612d0e8282604051602401612c8c929190613f05565b6040516020818303038152906040527f9710a9d0000000000000000000000000000000000000000000000000000000007bffffffffffffffffffffffffffffffffffffffffffffffffffffffff19166020820180517bffffffffffffffffffffffffffffffffffffffffffffffffffffffff8381831617835250505050612d12565b5050565b60008151905060006a636f6e736f6c652e6c6f679050602083016000808483855afa5050505050565b505050565b612d4a8383612f32565b612d576000848484612d9b565b612d96576040517f08c379a0000000000000000000000000000000000000000000000000000000008152600401612d8d90613fc6565b60405180910390fd5b505050565b6000612dbc8473ffffffffffffffffffffffffffffffffffffffff16613100565b15612f25578373ffffffffffffffffffffffffffffffffffffffff1663150b7a02612de5612347565b8786866040518563ffffffff1660e01b8152600401612e079493929190613cc9565b602060405180830381600087803b158015612e2157600080fd5b505af1925050508015612e5257506040513d601f19601f82011682018060405250810190612e4f91906134c3565b60015b612ed5573d8060008114612e82576040519150601f19603f3d011682016040523d82523d6000602084013e612e87565b606091505b50600081511415612ecd576040517f08c379a0000000000000000000000000000000000000000000000000000000008152600401612ec490613fc6565b60405180910390fd5b805181602001fd5b63150b7a0260e01b7bffffffffffffffffffffffffffffffffffffffffffffffffffffffff1916817bffffffffffffffffffffffffffffffffffffffffffffffffffffffff191614915050612f2a565b600190505b949350505050565b600073ffffffffffffffffffffffffffffffffffffffff168273ffffffffffffffffffffffffffffffffffffffff161415612fa2576040517f08c379a0000000000000000000000000000000000000000000000000000000008152600401612f9990614106565b60405180910390fd5b612fab816122db565b15612feb576040517f08c379a0000000000000000000000000000000000000000000000000000000008152600401612fe290614006565b60405180910390fd5b612ff760008383612d3b565b6001600360008473ffffffffffffffffffffffffffffffffffffffff1673ffffffffffffffffffffffffffffffffffffffff16815260200190815260200160002060008282546130479190614395565b92505081905550816002600083815260200190815260200160002060006101000a81548173ffffffffffffffffffffffffffffffffffffffff021916908373ffffffffffffffffffffffffffffffffffffffff160217905550808273ffffffffffffffffffffffffffffffffffffffff16600073ffffffffffffffffffffffffffffffffffffffff167fddf252ad1be2c89b69c2b068fc378daa952ba7f163c4a11628f55a4df523b3ef60405160405180910390a45050565b600080823b905060008111915050919050565b6040518060a0016040528060608152602001606081526020016000815260200160008152602001600081525090565b82805461314e90614560565b90600052602060002090601f01602090048101928261317057600085556131b7565b82601f1061318957805160ff19168380011785556131b7565b828001600101855582156131b7579182015b828111156131b657825182559160200191906001019061319b565b5b5090506131c49190613205565b5090565b6040518060e00160405280600081526020016060815260200160608152602001606081526020016000815260200160008152602001600081525090565b5b8082111561321e576000816000905550600101613206565b5090565b6000613235613230846142d7565b6142b2565b90508281526020810184848401111561324d57600080fd5b61325884828561451e565b509392505050565b60008135905061326f81614d42565b92915050565b60008135905061328481614d59565b92915050565b60008135905061329981614d70565b92915050565b6000815190506132ae81614d70565b92915050565b600082601f8301126132c557600080fd5b81356132d5848260208601613222565b91505092915050565b6000813590506132ed81614d87565b92915050565b60006020828403121561330557600080fd5b600061331384828501613260565b91505092915050565b6000806040838503121561332f57600080fd5b600061333d85828601613260565b925050602061334e85828601613260565b9150509250929050565b60008060006060848603121561336d57600080fd5b600061337b86828701613260565b935050602061338c86828701613260565b925050604061339d868287016132de565b9150509250925092565b600080600080608085870312156133bd57600080fd5b60006133cb87828801613260565b94505060206133dc87828801613260565b93505060406133ed878288016132de565b925050606085013567ffffffffffffffff81111561340a57600080fd5b613416878288016132b4565b91505092959194509250565b6000806040838503121561343557600080fd5b600061344385828601613260565b925050602061345485828601613275565b9150509250929050565b6000806040838503121561347157600080fd5b600061347f85828601613260565b9250506020613490858286016132de565b9150509250929050565b6000602082840312156134ac57600080fd5b60006134ba8482850161328a565b91505092915050565b6000602082840312156134d557600080fd5b60006134e38482850161329f565b91505092915050565b6000602082840312156134fe57600080fd5b600061350c848285016132de565b91505092915050565b60006135218383613a5d565b905092915050565b613532816144aa565b82525050565b600061354382614318565b61354d8185614346565b93508360208202850161355f85614308565b8060005b8581101561359b578484038952815161357c8582613515565b945061358783614339565b925060208a01995050600181019050613563565b50829750879550505050505092915050565b6135b6816144bc565b82525050565b60006135c782614323565b6135d18185614357565b93506135e181856020860161452d565b6135ea816146f9565b840191505092915050565b60006136008261432e565b61360a8185614368565b935061361a81856020860161452d565b613623816146f9565b840191505092915050565b60006136398261432e565b6136438185614379565b935061365381856020860161452d565b61365c816146f9565b840191505092915050565b60006136728261432e565b61367c818561438a565b935061368c81856020860161452d565b80840191505092915050565b60006136a5603283614379565b91506136b08261470a565b604082019050919050565b60006136c860028361438a565b91506136d382614759565b600282019050919050565b60006136eb602883614379565b91506136f682614782565b604082019050919050565b600061370e601c83614379565b9150613719826147d1565b602082019050919050565b6000613731600e8361438a565b915061373c826147fa565b600e82019050919050565b6000613754602483614379565b915061375f82614823565b604082019050919050565b6000613777601983614379565b915061378282614872565b602082019050919050565b600061379a602c83614379565b91506137a58261489b565b604082019050919050565b60006137bd60408361438a565b91506137c8826148ea565b604082019050919050565b60006137e0603883614379565b91506137eb82614939565b604082019050919050565b6000613803602a83614379565b915061380e82614988565b604082019050919050565b6000613826602983614379565b9150613831826149d7565b604082019050919050565b6000613849602d83614379565b915061385482614a26565b604082019050919050565b600061386c60048361438a565b915061387782614a75565b600482019050919050565b600061388f602083614379565b915061389a82614a9e565b602082019050919050565b60006138b2602c83614379565b91506138bd82614ac7565b604082019050919050565b60006138d560368361438a565b91506138e082614b16565b603682019050919050565b60006138f8602983614379565b915061390382614b65565b604082019050919050565b600061391b600a8361438a565b915061392682614bb4565b600a82019050919050565b600061393e602183614379565b915061394982614bdd565b604082019050919050565b6000613961601d8361438a565b915061396c82614c2c565b601d82019050919050565b6000613984603183614379565b915061398f82614c55565b604082019050919050565b60006139a7602d8361438a565b91506139b282614ca4565b602d82019050919050565b60006139ca602e8361438a565b91506139d582614cf3565b602e82019050919050565b600060a08301600083015184820360008601526139fd82826135f5565b91505060208301518482036020860152613a1782826135f5565b9150506040830151613a2c6040860182613bb1565b506060830151613a3f6060860182613bb1565b506080830151613a526080860182613bb1565b508091505092915050565b600060e083016000830151613a756000860182613bb1565b5060208301518482036020860152613a8d82826135f5565b91505060408301518482036040860152613aa782826135f5565b91505060608301518482036060860152613ac182826135f5565b9150506080830151613ad66080860182613bb1565b5060a0830151613ae960a0860182613bb1565b5060c0830151613afc60c0860182613bb1565b508091505092915050565b600060e083016000830151613b1f6000860182613bb1565b5060208301518482036020860152613b3782826135f5565b91505060408301518482036040860152613b5182826135f5565b91505060608301518482036060860152613b6b82826135f5565b9150506080830151613b806080860182613bb1565b5060a0830151613b9360a0860182613bb1565b5060c0830151613ba660c0860182613bb1565b508091505092915050565b613bba81614514565b82525050565b613bc981614514565b82525050565b6000613bda8261390e565b9150613be6828a613667565b9150613bf1826136bb565b9150613bfd8289613667565b9150613c08826137b0565b9150613c148288613667565b9150613c1f826138c8565b9150613c2b8287613667565b9150613c36826139bd565b9150613c428286613667565b9150613c4d82613724565b9150613c598285613667565b9150613c648261399a565b9150613c708284613667565b9150613c7b8261385f565b915081905098975050505050505050565b6000613c9782613954565b9150613ca38284613667565b915081905092915050565b6000602082019050613cc36000830184613529565b92915050565b6000608082019050613cde6000830187613529565b613ceb6020830186613529565b613cf86040830185613bc0565b8181036060830152613d0a81846135bc565b905095945050505050565b6000606082019050613d2a6000830186613529565b613d376020830185613bc0565b613d446040830184613bc0565b949350505050565b60006020820190508181036000830152613d668184613538565b905092915050565b6000602082019050613d8360008301846135ad565b92915050565b60006020820190508181036000830152613da3818461362e565b905092915050565b60006060820190508181036000830152613dc5818661362e565b90508181036020830152613dd9818561362e565b90508181036040830152613ded818461362e565b9050949350505050565b60006080820190508181036000830152613e11818761362e565b90508181036020830152613e25818661362e565b9050613e346040830185613bc0565b8181036060830152613e46818461362e565b905095945050505050565b60006080820190508181036000830152613e6b818761362e565b90508181036020830152613e7f818661362e565b9050613e8e6040830185613bc0565b613e9b6060830184613bc0565b95945050505050565b600060a0820190508181036000830152613ebe818861362e565b90508181036020830152613ed2818761362e565b9050613ee16040830186613bc0565b613eee6060830185613bc0565b613efb6080830184613bc0565b9695505050505050565b60006040820190508181036000830152613f1f818561362e565b9050613f2e6020830184613bc0565b9392505050565b60006060820190508181036000830152613f4f818661362e565b9050613f5e6020830185613bc0565b613f6b6040830184613bc0565b949350505050565b60006080820190508181036000830152613f8d818761362e565b9050613f9c6020830186613bc0565b613fa96040830185613bc0565b8181036060830152613fbb818461362e565b905095945050505050565b60006020820190508181036000830152613fdf81613698565b9050919050565b60006020820190508181036000830152613fff816136de565b9050919050565b6000602082019050818103600083015261401f81613701565b9050919050565b6000602082019050818103600083015261403f81613747565b9050919050565b6000602082019050818103600083015261405f8161376a565b9050919050565b6000602082019050818103600083015261407f8161378d565b9050919050565b6000602082019050818103600083015261409f816137d3565b9050919050565b600060208201905081810360008301526140bf816137f6565b9050919050565b600060208201905081810360008301526140df81613819565b9050919050565b600060208201905081810360008301526140ff8161383c565b9050919050565b6000602082019050818103600083015261411f81613882565b9050919050565b6000602082019050818103600083015261413f816138a5565b9050919050565b6000602082019050818103600083015261415f816138eb565b9050919050565b6000602082019050818103600083015261417f81613931565b9050919050565b6000602082019050818103600083015261419f81613977565b9050919050565b600060208201905081810360008301526141c081846139e0565b905092915050565b600060208201905081810360008301526141e28184613b07565b905092915050565b60006020820190506141ff6000830184613bc0565b92915050565b600060e08201905061421a600083018a613bc0565b818103602083015261422c818961362e565b90508181036040830152614240818861362e565b90508181036060830152614254818761362e565b90506142636080830186613bc0565b61427060a0830185613bc0565b61427d60c0830184613bc0565b98975050505050505050565b600060408201905061429e6000830185613bc0565b6142ab6020830184613bc0565b9392505050565b60006142bc6142cd565b90506142c88282614592565b919050565b6000604051905090565b600067ffffffffffffffff8211156142f2576142f16146ca565b5b6142fb826146f9565b9050602081019050919050565b6000819050602082019050919050565b600081519050919050565b600081519050919050565b600081519050919050565b6000602082019050919050565b600082825260208201905092915050565b600082825260208201905092915050565b600082825260208201905092915050565b600082825260208201905092915050565b600081905092915050565b60006143a082614514565b91506143ab83614514565b9250827fffffffffffffffffffffffffffffffffffffffffffffffffffffffffffffffff038211156143e0576143df61463d565b5b828201905092915050565b60006143f682614514565b915061440183614514565b9250826144115761441061466c565b5b828204905092915050565b600061442782614514565b915061443283614514565b9250817fffffffffffffffffffffffffffffffffffffffffffffffffffffffffffffffff048311821515161561446b5761446a61463d565b5b828202905092915050565b600061448182614514565b915061448c83614514565b92508282101561449f5761449e61463d565b5b828203905092915050565b60006144b5826144f4565b9050919050565b60008115159050919050565b60007fffffffff0000000000000000000000000000000000000000000000000000000082169050919050565b600073ffffffffffffffffffffffffffffffffffffffff82169050919050565b6000819050919050565b82818337600083830152505050565b60005b8381101561454b578082015181840152602081019050614530565b8381111561455a576000848401525b50505050565b6000600282049050600182168061457857607f821691505b6020821081141561458c5761458b61469b565b5b50919050565b61459b826146f9565b810181811067ffffffffffffffff821117156145ba576145b96146ca565b5b80604052505050565b60006145ce82614514565b91507fffffffffffffffffffffffffffffffffffffffffffffffffffffffffffffffff8214156146015761460061463d565b5b600182019050919050565b600061461782614514565b915061462283614514565b9250826146325761463161466c565b5b828206905092915050565b7f4e487b7100000000000000000000000000000000000000000000000000000000600052601160045260246000fd5b7f4e487b7100000000000000000000000000000000000000000000000000000000600052601260045260246000fd5b7f4e487b7100000000000000000000000000000000000000000000000000000000600052602260045260246000fd5b7f4e487b7100000000000000000000000000000000000000000000000000000000600052604160045260246000fd5b6000601f19601f8301169050919050565b7f4552433732313a207472616e7366657220746f206e6f6e20455243373231526560008201527f63656976657220696d706c656d656e7465720000000000000000000000000000602082015250565b7f2023000000000000000000000000000000000000000000000000000000000000600082015250565b7f4572726f723a20626f7373206d757374206861766520485020746f206174746160008201527f636b20626f73732e000000000000000000000000000000000000000000000000602082015250565b7f4552433732313a20746f6b656e20616c7265616479206d696e74656400000000600082015250565b7f2c20226d61785f76616c7565223a000000000000000000000000000000000000600082015250565b7f4552433732313a207472616e7366657220746f20746865207a65726f2061646460008201527f7265737300000000000000000000000000000000000000000000000000000000602082015250565b7f4552433732313a20617070726f766520746f2063616c6c657200000000000000600082015250565b7f4552433732313a206f70657261746f7220717565727920666f72206e6f6e657860008201527f697374656e7420746f6b656e0000000000000000000000000000000000000000602082015250565b7f222c20226465736372697074696f6e223a20225468697320697320612056696b60008201527f696e6773204e46542063686172616374657221222c2022696d616765223a2022602082015250565b7f4552433732313a20617070726f76652063616c6c6572206973206e6f74206f7760008201527f6e6572206e6f7220617070726f76656420666f7220616c6c0000000000000000602082015250565b7f4552433732313a2062616c616e636520717565727920666f7220746865207a6560008201527f726f206164647265737300000000000000000000000000000000000000000000602082015250565b7f4552433732313a206f776e657220717565727920666f72206e6f6e657869737460008201527f656e7420746f6b656e0000000000000000000000000000000000000000000000602082015250565b7f4572726f723a20636861726163746572206d757374206861766520485020746f60008201527f2061747461636b20626f73732e00000000000000000000000000000000000000602082015250565b7f7d205d7d00000000000000000000000000000000000000000000000000000000600082015250565b7f4552433732313a206d696e7420746f20746865207a65726f2061646472657373600082015250565b7f4552433732313a20617070726f76656420717565727920666f72206e6f6e657860008201527f697374656e7420746f6b656e0000000000000000000000000000000000000000602082015250565b7f222c202261747472696275746573223a205b207b202274726169745f7479706560008201527f223a2022436c617373222c202276616c7565223a202200000000000000000000602082015250565b7f4552433732313a207472616e73666572206f6620746f6b656e2074686174206960008201527f73206e6f74206f776e0000000000000000000000000000000000000000000000602082015250565b7f7b226e616d65223a202200000000000000000000000000000000000000000000600082015250565b7f4552433732313a20617070726f76616c20746f2063757272656e74206f776e6560008201527f7200000000000000000000000000000000000000000000000000000000000000602082015250565b7f646174613a6170706c69636174696f6e2f6a736f6e3b6261736536342c000000600082015250565b7f4552433732313a207472616e736665722063616c6c6572206973206e6f74206f60008201527f776e6572206e6f7220617070726f766564000000000000000000000000000000602082015250565b7f7d2c207b202274726169745f74797065223a202241747461636b2044616d616760008201527f65222c202276616c7565223a2000000000000000000000000000000000000000602082015250565b7f227d2c207b202274726169745f74797065223a20224865616c746820506f696e60008201527f7473222c202276616c7565223a20000000000000000000000000000000000000602082015250565b614d4b816144aa565b8114614d5657600080fd5b50565b614d62816144bc565b8114614d6d57600080fd5b50565b614d79816144c8565b8114614d8457600080fd5b50565b614d9081614514565b8114614d9b57600080fd5b5056fe4d696e7465642056696b696e67204e4654200a49443a202325730a496e6465783a2025734142434445464748494a4b4c4d4e4f505152535455565758595a6162636465666768696a6b6c6d6e6f707172737475767778797a303132333435363738392b2f426f73732061747461636b656420706c617965722e204e657720706c617965722068703a2025730a0a506c6179657220772f206368617261637465722025732061626f757420746f2061747461636b2e2048617320257320485020616e64202573204144a26469706673582212209be721c9adb8ee3a1b7808ba77dda8f617af5c28f1aca5f56887b57bab2b516a64736f6c634300080400330a496e697469616c697a696e672056696b696e670a4e616d653a2025730a547970653a20257348503a2025730a41747461636b2044616d6167653a2025730a496d6167653a2025730a446f6e6520696e697469616c697a696e6720626f737320257320772f2048502025732c20696d67202573",
  "linkReferences": {},
  "deployedLinkReferences": {}
}