{
  "_format": "hh-sol-artifact-1",
  "contractName": "Vikings",
  "sourceName": "contracts/Vikings.sol",
  "abi": [
    {
      "inputs": [
        {
          "internalType": "string[]",
          "name": "vikingNames",
          "type": "string[]"
        },
        {
          "internalType": "string[]",
          "name": "classes",
          "type": "string[]"
        },
        {
          "internalType": "string[]",
          "name": "vikingImageURIs",
          "type": "string[]"
        },
        {
          "internalType": "uint256[]",
          "name": "vikingHp",
          "type": "uint256[]"
        },
        {
          "internalType": "uint256[]",
          "name": "vikingAttackDmg",
          "type": "uint256[]"
        },
        {
          "internalType": "string",
          "name": "bossName",
          "type": "string"
        },
        {
          "internalType": "string",
          "name": "bossImageURI",
          "type": "string"
        },
        {
          "internalType": "uint256",
          "name": "bossHp",
          "type": "uint256"
        },
        {
          "internalType": "uint256",
          "name": "bossAttackDamage",
          "type": "uint256"
        }
      ],
      "stateMutability": "nonpayable",
      "type": "constructor"
    },
    {
      "anonymous": false,
      "inputs": [
        {
          "indexed": true,
          "internalType": "address",
          "name": "owner",
          "type": "address"
        },
        {
          "indexed": true,
          "internalType": "address",
          "name": "approved",
          "type": "address"
        },
        {
          "indexed": true,
          "internalType": "uint256",
          "name": "tokenId",
          "type": "uint256"
        }
      ],
      "name": "Approval",
      "type": "event"
    },
    {
      "anonymous": false,
      "inputs": [
        {
          "indexed": true,
          "internalType": "address",
          "name": "owner",
          "type": "address"
        },
        {
          "indexed": true,
          "internalType": "address",
          "name": "operator",
          "type": "address"
        },
        {
          "indexed": false,
          "internalType": "bool",
          "name": "approved",
          "type": "bool"
        }
      ],
      "name": "ApprovalForAll",
      "type": "event"
    },
    {
      "anonymous": false,
      "inputs": [
        {
          "indexed": false,
          "internalType": "uint256",
          "name": "newBossHp",
          "type": "uint256"
        },
        {
          "indexed": false,
          "internalType": "uint256",
          "name": "newPlayerHp",
          "type": "uint256"
        }
      ],
      "name": "AttackComplete",
      "type": "event"
    },
    {
      "anonymous": false,
      "inputs": [
        {
          "indexed": true,
          "internalType": "address",
          "name": "from",
          "type": "address"
        },
        {
          "indexed": true,
          "internalType": "address",
          "name": "to",
          "type": "address"
        },
        {
          "indexed": true,
          "internalType": "uint256",
          "name": "tokenId",
          "type": "uint256"
        }
      ],
      "name": "Transfer",
      "type": "event"
    },
    {
      "anonymous": false,
      "inputs": [
        {
          "indexed": false,
          "internalType": "address",
          "name": "sender",
          "type": "address"
        },
        {
          "indexed": false,
          "internalType": "uint256",
          "name": "tokenId",
          "type": "uint256"
        },
        {
          "indexed": false,
          "internalType": "uint256",
          "name": "vikingIndex",
          "type": "uint256"
        }
      ],
      "name": "VikingNFTMinted",
      "type": "event"
    },
    {
      "inputs": [
        {
          "internalType": "address",
          "name": "to",
          "type": "address"
        },
        {
          "internalType": "uint256",
          "name": "tokenId",
          "type": "uint256"
        }
      ],
      "name": "approve",
      "outputs": [],
      "stateMutability": "nonpayable",
      "type": "function"
    },
    {
      "inputs": [],
      "name": "attackBoss",
      "outputs": [],
      "stateMutability": "nonpayable",
      "type": "function"
    },
    {
      "inputs": [
        {
          "internalType": "address",
          "name": "owner",
          "type": "address"
        }
      ],
      "name": "balanceOf",
      "outputs": [
        {
          "internalType": "uint256",
          "name": "",
          "type": "uint256"
        }
      ],
      "stateMutability": "view",
      "type": "function"
    },
    {
      "inputs": [],
      "name": "bigBoss",
      "outputs": [
        {
          "internalType": "string",
          "name": "name",
          "type": "string"
        },
        {
          "internalType": "string",
          "name": "imageURI",
          "type": "string"
        },
        {
          "internalType": "uint256",
          "name": "hp",
          "type": "uint256"
        },
        {
          "internalType": "uint256",
          "name": "maxHp",
          "type": "uint256"
        },
        {
          "internalType": "uint256",
          "name": "attackDamage",
          "type": "uint256"
        }
      ],
      "stateMutability": "view",
      "type": "function"
    },
    {
      "inputs": [],
      "name": "checkIfUserHasNFT",
      "outputs": [
        {
          "components": [
            {
              "internalType": "uint256",
              "name": "vikingIndex",
              "type": "uint256"
            },
            {
              "internalType": "string",
              "name": "name",
              "type": "string"
            },
            {
              "internalType": "string",
              "name": "class",
              "type": "string"
            },
            {
              "internalType": "string",
              "name": "imageURI",
              "type": "string"
            },
            {
              "internalType": "uint256",
              "name": "hp",
              "type": "uint256"
            },
            {
              "internalType": "uint256",
              "name": "maxHp",
              "type": "uint256"
            },
            {
              "internalType": "uint256",
              "name": "attackDamage",
              "type": "uint256"
            }
          ],
          "internalType": "struct Vikings.VikingAttributes",
          "name": "",
          "type": "tuple"
        }
      ],
      "stateMutability": "view",
      "type": "function"
    },
    {
      "inputs": [],
      "name": "getAllDefaultVikings",
      "outputs": [
        {
          "components": [
            {
              "internalType": "uint256",
              "name": "vikingIndex",
              "type": "uint256"
            },
            {
              "internalType": "string",
              "name": "name",
              "type": "string"
            },
            {
              "internalType": "string",
              "name": "class",
              "type": "string"
            },
            {
              "internalType": "string",
              "name": "imageURI",
              "type": "string"
            },
            {
              "internalType": "uint256",
              "name": "hp",
              "type": "uint256"
            },
            {
              "internalType": "uint256",
              "name": "maxHp",
              "type": "uint256"
            },
            {
              "internalType": "uint256",
              "name": "attackDamage",
              "type": "uint256"
            }
          ],
          "internalType": "struct Vikings.VikingAttributes[]",
          "name": "",
          "type": "tuple[]"
        }
      ],
      "stateMutability": "view",
      "type": "function"
    },
    {
      "inputs": [
        {
          "internalType": "uint256",
          "name": "tokenId",
          "type": "uint256"
        }
      ],
      "name": "getApproved",
      "outputs": [
        {
          "internalType": "address",
          "name": "",
          "type": "address"
        }
      ],
      "stateMutability": "view",
      "type": "function"
    },
    {
      "inputs": [],
      "name": "getBigBoss",
      "outputs": [
        {
          "components": [
            {
              "internalType": "string",
              "name": "name",
              "type": "string"
            },
            {
              "internalType": "string",
              "name": "imageURI",
              "type": "string"
            },
            {
              "internalType": "uint256",
              "name": "hp",
              "type": "uint256"
            },
            {
              "internalType": "uint256",
              "name": "maxHp",
              "type": "uint256"
            },
            {
              "internalType": "uint256",
              "name": "attackDamage",
              "type": "uint256"
            }
          ],
          "internalType": "struct Vikings.BigBoss",
          "name": "",
          "type": "tuple"
        }
      ],
      "stateMutability": "view",
      "type": "function"
    },
    {
      "inputs": [
        {
          "internalType": "address",
          "name": "owner",
          "type": "address"
        },
        {
          "internalType": "address",
          "name": "operator",
          "type": "address"
        }
      ],
      "name": "isApprovedForAll",
      "outputs": [
        {
          "internalType": "bool",
          "name": "",
          "type": "bool"
        }
      ],
      "stateMutability": "view",
      "type": "function"
    },
    {
      "inputs": [
        {
          "internalType": "uint256",
          "name": "_vikingIndex",
          "type": "uint256"
        }
      ],
      "name": "mintVikingNFT",
      "outputs": [],
      "stateMutability": "nonpayable",
      "type": "function"
    },
    {
      "inputs": [],
      "name": "name",
      "outputs": [
        {
          "internalType": "string",
          "name": "",
          "type": "string"
        }
      ],
      "stateMutability": "view",
      "type": "function"
    },
    {
      "inputs": [
        {
          "internalType": "uint256",
          "name": "",
          "type": "uint256"
        }
      ],
      "name": "nftHolderAttributes",
      "outputs": [
        {
          "internalType": "uint256",
          "name": "vikingIndex",
          "type": "uint256"
        },
        {
          "internalType": "string",
          "name": "name",
          "type": "string"
        },
        {
          "internalType": "string",
          "name": "class",
          "type": "string"
        },
        {
          "internalType": "string",
          "name": "imageURI",
          "type": "string"
        },
        {
          "internalType": "uint256",
          "name": "hp",
          "type": "uint256"
        },
        {
          "internalType": "uint256",
          "name": "maxHp",
          "type": "uint256"
        },
        {
          "internalType": "uint256",
          "name": "attackDamage",
          "type": "uint256"
        }
      ],
      "stateMutability": "view",
      "type": "function"
    },
    {
      "inputs": [
        {
          "internalType": "address",
          "name": "",
          "type": "address"
        }
      ],
      "name": "nftHolders",
      "outputs": [
        {
          "internalType": "uint256",
          "name": "",
          "type": "uint256"
        }
      ],
      "stateMutability": "view",
      "type": "function"
    },
    {
      "inputs": [
        {
          "internalType": "uint256",
          "name": "tokenId",
          "type": "uint256"
        }
      ],
      "name": "ownerOf",
      "outputs": [
        {
          "internalType": "address",
          "name": "",
          "type": "address"
        }
      ],
      "stateMutability": "view",
      "type": "function"
    },
    {
      "inputs": [
        {
          "internalType": "address",
          "name": "from",
          "type": "address"
        },
        {
          "internalType": "address",
          "name": "to",
          "type": "address"
        },
        {
          "internalType": "uint256",
          "name": "tokenId",
          "type": "uint256"
        }
      ],
      "name": "safeTransferFrom",
      "outputs": [],
      "stateMutability": "nonpayable",
      "type": "function"
    },
    {
      "inputs": [
        {
          "internalType": "address",
          "name": "from",
          "type": "address"
        },
        {
          "internalType": "address",
          "name": "to",
          "type": "address"
        },
        {
          "internalType": "uint256",
          "name": "tokenId",
          "type": "uint256"
        },
        {
          "internalType": "bytes",
          "name": "_data",
          "type": "bytes"
        }
      ],
      "name": "safeTransferFrom",
      "outputs": [],
      "stateMutability": "nonpayable",
      "type": "function"
    },
    {
      "inputs": [
        {
          "internalType": "address",
          "name": "operator",
          "type": "address"
        },
        {
          "internalType": "bool",
          "name": "approved",
          "type": "bool"
        }
      ],
      "name": "setApprovalForAll",
      "outputs": [],
      "stateMutability": "nonpayable",
      "type": "function"
    },
    {
      "inputs": [
        {
          "internalType": "bytes4",
          "name": "interfaceId",
          "type": "bytes4"
        }
      ],
      "name": "supportsInterface",
      "outputs": [
        {
          "internalType": "bool",
          "name": "",
          "type": "bool"
        }
      ],
      "stateMutability": "view",
      "type": "function"
    },
    {
      "inputs": [],
      "name": "symbol",
      "outputs": [
        {
          "internalType": "string",
          "name": "",
          "type": "string"
        }
      ],
      "stateMutability": "view",
      "type": "function"
    },
    {
      "inputs": [
        {
          "internalType": "uint256",
          "name": "_tokenId",
          "type": "uint256"
        }
      ],
      "name": "tokenURI",
      "outputs": [
        {
          "internalType": "string",
          "name": "",
          "type": "string"
        }
      ],
      "stateMutability": "view",
      "type": "function"
    },
    {
      "inputs": [
        {
          "internalType": "address",
          "name": "from",
          "type": "address"
        },
        {
          "internalType": "address",
          "name": "to",
          "type": "address"
        },
        {
          "internalType": "uint256",
          "name": "tokenId",
          "type": "uint256"
        }
      ],
      "name": "transferFrom",
      "outputs": [],
      "stateMutability": "nonpayable",
      "type": "function"
    }
  ],
  "bytecode": "0x60806040523480156200001157600080fd5b506040516200618838038062006188833981810160405281019062000037919062000d13565b6040518060400160405280600781526020017f56696b696e6773000000000000000000000000000000000000000000000000008152506040518060400160405280600681526020017f76696b696e6700000000000000000000000000000000000000000000000000008152508160009080519060200190620000bb92919062000a7b565b508060019080519060200190620000d492919062000a7b565b5050506040518060a0016040528085815260200184815260200183815260200183815260200182815250600660008201518160000190805190602001906200011e92919062000a7b565b5060208201518160010190805190602001906200013d92919062000a7b565b50604082015181600201556060820151816003015560808201518160040155905050620002c06040518060600160405280602a81526020016200615e602a9139600660000180546200018f9062001115565b80601f0160208091040260200160405190810160405280929190818152602001828054620001bd9062001115565b80156200020e5780601f10620001e2576101008083540402835291602001916200020e565b820191906000526020600020905b815481529060010190602001808311620001f057829003601f168201915b5050505050600660020154600660010180546200022b9062001115565b80601f0160208091040260200160405190810160405280929190818152602001828054620002599062001115565b8015620002aa5780601f106200027e57610100808354040283529160200191620002aa565b820191906000526020600020905b8154815290600101906020018083116200028c57829003601f168201915b50505050506200083b60201b6200205a1760201c565b60005b89518110156200081457600c6040518060e001604052808381526020018c84815181106200031a577f4e487b7100000000000000000000000000000000000000000000000000000000600052603260045260246000fd5b602002602001015181526020018b848151811062000361577f4e487b7100000000000000000000000000000000000000000000000000000000600052603260045260246000fd5b602002602001015181526020018a8481518110620003a8577f4e487b7100000000000000000000000000000000000000000000000000000000600052603260045260246000fd5b60200260200101518152602001898481518110620003ef577f4e487b7100000000000000000000000000000000000000000000000000000000600052603260045260246000fd5b6020026020010151815260200189848151811062000436577f4e487b7100000000000000000000000000000000000000000000000000000000600052603260045260246000fd5b602002602001015181526020018884815181106200047d577f4e487b7100000000000000000000000000000000000000000000000000000000600052603260045260246000fd5b60200260200101518152509080600181540180825580915050600190039060005260206000209060070201600090919091909150600082015181600001556020820151816001019080519060200190620004d992919062000a7b565b506040820151816002019080519060200190620004f892919062000a7b565b5060608201518160030190805190602001906200051792919062000a7b565b506080820151816004015560a0820151816005015560c0820151816006015550506000600c828154811062000575577f4e487b7100000000000000000000000000000000000000000000000000000000600052603260045260246000fd5b90600052602060002090600702016040518060e001604052908160008201548152602001600182018054620005aa9062001115565b80601f0160208091040260200160405190810160405280929190818152602001828054620005d89062001115565b8015620006295780601f10620005fd5761010080835404028352916020019162000629565b820191906000526020600020905b8154815290600101906020018083116200060b57829003601f168201915b50505050508152602001600282018054620006449062001115565b80601f0160208091040260200160405190810160405280929190818152602001828054620006729062001115565b8015620006c35780601f106200069757610100808354040283529160200191620006c3565b820191906000526020600020905b815481529060010190602001808311620006a557829003601f168201915b50505050508152602001600382018054620006de9062001115565b80601f01602080910402602001604051908101604052809291908181526020018280546200070c9062001115565b80156200075d5780601f1062000731576101008083540402835291602001916200075d565b820191906000526020600020905b8154815290600101906020018083116200073f57829003601f168201915b5050505050815260200160048201548152602001600582015481526020016006820154815250509050620007bf604051806060016040528060268152602001620061156026913982602001518360400151620008e760201b620020fc1760201c565b620007fd6040518060600160405280602381526020016200613b6023913982608001518360c0015184606001516200099060201b6200219b1760201c565b5080806200080b9062001181565b915050620002c3565b506200082c600b62000a3c60201b6200223d1760201c565b50505050505050505062001287565b620008e18484848460405160240162000858949392919062000f3f565b6040516020818303038152906040527f8d142cdd000000000000000000000000000000000000000000000000000000007bffffffffffffffffffffffffffffffffffffffffffffffffffffffff19166020820180517bffffffffffffffffffffffffffffffffffffffffffffffffffffffff838183161783525050505062000a5260201b60201c565b50505050565b6200098b838383604051602401620009029392919062000eed565b6040516020818303038152906040527f2ced7cef000000000000000000000000000000000000000000000000000000007bffffffffffffffffffffffffffffffffffffffffffffffffffffffff19166020820180517bffffffffffffffffffffffffffffffffffffffffffffffffffffffff838183161783525050505062000a5260201b60201c565b505050565b62000a3684848484604051602401620009ad949392919062000fa1565b6040516020818303038152906040527fa54ed4bd000000000000000000000000000000000000000000000000000000007bffffffffffffffffffffffffffffffffffffffffffffffffffffffff19166020820180517bffffffffffffffffffffffffffffffffffffffffffffffffffffffff838183161783525050505062000a5260201b60201c565b50505050565b6001816000016000828254019250508190555050565b60008151905060006a636f6e736f6c652e6c6f679050602083016000808483855afa5050505050565b82805462000a899062001115565b90600052602060002090601f01602090048101928262000aad576000855562000af9565b82601f1062000ac857805160ff191683800117855562000af9565b8280016001018555821562000af9579182015b8281111562000af857825182559160200191906001019062000adb565b5b50905062000b08919062000b0c565b5090565b5b8082111562000b2757600081600090555060010162000b0d565b5090565b600062000b4262000b3c8462001025565b62000ffc565b9050808382526020820190508285602086028201111562000b6257600080fd5b60005b8581101562000bb157815167ffffffffffffffff81111562000b8657600080fd5b80860162000b95898262000ccf565b8552602085019450602084019350505060018101905062000b65565b5050509392505050565b600062000bd262000bcc8462001054565b62000ffc565b9050808382526020820190508285602086028201111562000bf257600080fd5b60005b8581101562000c26578162000c0b888262000cfc565b84526020840193506020830192505060018101905062000bf5565b5050509392505050565b600062000c4762000c418462001083565b62000ffc565b90508281526020810184848401111562000c6057600080fd5b62000c6d848285620010df565b509392505050565b600082601f83011262000c8757600080fd5b815162000c9984826020860162000b2b565b91505092915050565b600082601f83011262000cb457600080fd5b815162000cc684826020860162000bbb565b91505092915050565b600082601f83011262000ce157600080fd5b815162000cf384826020860162000c30565b91505092915050565b60008151905062000d0d816200126d565b92915050565b60008060008060008060008060006101208a8c03121562000d3357600080fd5b60008a015167ffffffffffffffff81111562000d4e57600080fd5b62000d5c8c828d0162000c75565b99505060208a015167ffffffffffffffff81111562000d7a57600080fd5b62000d888c828d0162000c75565b98505060408a015167ffffffffffffffff81111562000da657600080fd5b62000db48c828d0162000c75565b97505060608a015167ffffffffffffffff81111562000dd257600080fd5b62000de08c828d0162000ca2565b96505060808a015167ffffffffffffffff81111562000dfe57600080fd5b62000e0c8c828d0162000ca2565b95505060a08a015167ffffffffffffffff81111562000e2a57600080fd5b62000e388c828d0162000ccf565b94505060c08a015167ffffffffffffffff81111562000e5657600080fd5b62000e648c828d0162000ccf565b93505060e062000e778c828d0162000cfc565b92505061010062000e8b8c828d0162000cfc565b9150509295985092959850929598565b600062000ea882620010b9565b62000eb48185620010c4565b935062000ec6818560208601620010df565b62000ed1816200125c565b840191505092915050565b62000ee781620010d5565b82525050565b6000606082019050818103600083015262000f09818662000e9b565b9050818103602083015262000f1f818562000e9b565b9050818103604083015262000f35818462000e9b565b9050949350505050565b6000608082019050818103600083015262000f5b818762000e9b565b9050818103602083015262000f71818662000e9b565b905062000f82604083018562000edc565b818103606083015262000f96818462000e9b565b905095945050505050565b6000608082019050818103600083015262000fbd818762000e9b565b905062000fce602083018662000edc565b62000fdd604083018562000edc565b818103606083015262000ff1818462000e9b565b905095945050505050565b6000620010086200101b565b90506200101682826200114b565b919050565b6000604051905090565b600067ffffffffffffffff8211156200104357620010426200122d565b5b602082029050602081019050919050565b600067ffffffffffffffff8211156200107257620010716200122d565b5b602082029050602081019050919050565b600067ffffffffffffffff821115620010a157620010a06200122d565b5b620010ac826200125c565b9050602081019050919050565b600081519050919050565b600082825260208201905092915050565b6000819050919050565b60005b83811015620010ff578082015181840152602081019050620010e2565b838111156200110f576000848401525b50505050565b600060028204905060018216806200112e57607f821691505b60208210811415620011455762001144620011fe565b5b50919050565b62001156826200125c565b810181811067ffffffffffffffff821117156200117857620011776200122d565b5b80604052505050565b60006200118e82620010d5565b91507fffffffffffffffffffffffffffffffffffffffffffffffffffffffffffffffff821415620011c457620011c3620011cf565b5b600182019050919050565b7f4e487b7100000000000000000000000000000000000000000000000000000000600052601160045260246000fd5b7f4e487b7100000000000000000000000000000000000000000000000000000000600052602260045260246000fd5b7f4e487b7100000000000000000000000000000000000000000000000000000000600052604160045260246000fd5b6000601f19601f8301169050919050565b6200127881620010d5565b81146200128457600080fd5b50565b614e7e80620012976000396000f3fe608060405234801561001057600080fd5b50600436106101375760003560e01c80637df124a1116100b8578063a9c326791161007c578063a9c3267914610366578063b88d4fde14610388578063c87b56dd146103a4578063c8cf27f4146103d4578063d4f24c5b146103f2578063e985e9c5146103fc57610137565b80637df124a1146102aa578063911c70a6146102da57806395d89b41146102f657806398da4c9514610314578063a22cb4651461034a57610137565b806323b872dd116100ff57806323b872dd146101f457806342842e0e146102105780636352211e1461022c57806363dc87541461025c57806370a082311461027a57610137565b806301ffc9a71461013c5780630665f9611461016c57806306fdde031461018a578063081812fc146101a8578063095ea7b3146101d8575b600080fd5b6101566004803603810190610151919061347c565b61042c565b6040516101639190613d50565b60405180910390f35b61017461050e565b6040516101819190614188565b60405180910390f35b61019261066a565b60405161019f9190613d6b565b60405180910390f35b6101c260048036038101906101bd91906134ce565b6106fc565b6040516101cf9190613c90565b60405180910390f35b6101f260048036038101906101ed9190613440565b610781565b005b61020e6004803603810190610209919061333a565b610899565b005b61022a6004803603810190610225919061333a565b6108f9565b005b610246600480360381019061024191906134ce565b610919565b6040516102539190613c90565b60405180910390f35b6102646109cb565b6040516102719190613d2e565b60405180910390f35b610294600480360381019061028f91906132d5565b610c08565b6040516102a191906141cc565b60405180910390f35b6102c460048036038101906102bf91906132d5565b610cc0565b6040516102d191906141cc565b60405180910390f35b6102f460048036038101906102ef91906134ce565b610cd8565b005b6102fe6111c2565b60405161030b9190613d6b565b60405180910390f35b61032e600480360381019061032991906134ce565b611254565b60405161034197969594939291906141e7565b60405180910390f35b610364600480360381019061035f9190613404565b61142e565b005b61036e6115af565b60405161037f959493929190613e86565b60405180910390f35b6103a2600480360381019061039d9190613389565b6116e3565b005b6103be60048036038101906103b991906134ce565b611745565b6040516103cb9190613d6b565b60405180910390f35b6103dc6119f8565b6040516103e991906141aa565b60405180910390f35b6103fa611c62565b005b610416600480360381019061041191906132fe565b611fc6565b6040516104239190613d50565b60405180910390f35b60007f80ac58cd000000000000000000000000000000000000000000000000000000007bffffffffffffffffffffffffffffffffffffffffffffffffffffffff1916827bffffffffffffffffffffffffffffffffffffffffffffffffffffffff191614806104f757507f5b5e139f000000000000000000000000000000000000000000000000000000007bffffffffffffffffffffffffffffffffffffffffffffffffffffffff1916827bffffffffffffffffffffffffffffffffffffffffffffffffffffffff1916145b80610507575061050682612253565b5b9050919050565b6105166130f5565b60066040518060a001604052908160008201805461053390614542565b80601f016020809104026020016040519081016040528092919081815260200182805461055f90614542565b80156105ac5780601f10610581576101008083540402835291602001916105ac565b820191906000526020600020905b81548152906001019060200180831161058f57829003601f168201915b505050505081526020016001820180546105c590614542565b80601f01602080910402602001604051908101604052809291908181526020018280546105f190614542565b801561063e5780601f106106135761010080835404028352916020019161063e565b820191906000526020600020905b81548152906001019060200180831161062157829003601f168201915b505050505081526020016002820154815260200160038201548152602001600482015481525050905090565b60606000805461067990614542565b80601f01602080910402602001604051908101604052809291908181526020018280546106a590614542565b80156106f25780601f106106c7576101008083540402835291602001916106f2565b820191906000526020600020905b8154815290600101906020018083116106d557829003601f168201915b5050505050905090565b6000610707826122bd565b610746576040517f08c379a000000000000000000000000000000000000000000000000000000000815260040161073d90614108565b60405180910390fd5b6004600083815260200190815260200160002060009054906101000a900473ffffffffffffffffffffffffffffffffffffffff169050919050565b600061078c82610919565b90508073ffffffffffffffffffffffffffffffffffffffff168373ffffffffffffffffffffffffffffffffffffffff1614156107fd576040517f08c379a00000000000000000000000000000000000000000000000000000000081526004016107f490614148565b60405180910390fd5b8073ffffffffffffffffffffffffffffffffffffffff1661081c612329565b73ffffffffffffffffffffffffffffffffffffffff16148061084b575061084a81610845612329565b611fc6565b5b61088a576040517f08c379a000000000000000000000000000000000000000000000000000000000815260040161088190614068565b60405180910390fd5b6108948383612331565b505050565b6108aa6108a4612329565b826123ea565b6108e9576040517f08c379a00000000000000000000000000000000000000000000000000000000081526004016108e090614168565b60405180910390fd5b6108f48383836124c8565b505050565b610914838383604051806020016040528060008152506116e3565b505050565b6000806002600084815260200190815260200160002060009054906101000a900473ffffffffffffffffffffffffffffffffffffffff169050600073ffffffffffffffffffffffffffffffffffffffff168173ffffffffffffffffffffffffffffffffffffffff1614156109c2576040517f08c379a00000000000000000000000000000000000000000000000000000000081526004016109b9906140a8565b60405180910390fd5b80915050919050565b6060600c805480602002602001604051908101604052809291908181526020016000905b82821015610bff57838290600052602060002090600702016040518060e001604052908160008201548152602001600182018054610a2c90614542565b80601f0160208091040260200160405190810160405280929190818152602001828054610a5890614542565b8015610aa55780601f10610a7a57610100808354040283529160200191610aa5565b820191906000526020600020905b815481529060010190602001808311610a8857829003601f168201915b50505050508152602001600282018054610abe90614542565b80601f0160208091040260200160405190810160405280929190818152602001828054610aea90614542565b8015610b375780601f10610b0c57610100808354040283529160200191610b37565b820191906000526020600020905b815481529060010190602001808311610b1a57829003601f168201915b50505050508152602001600382018054610b5090614542565b80601f0160208091040260200160405190810160405280929190818152602001828054610b7c90614542565b8015610bc95780601f10610b9e57610100808354040283529160200191610bc9565b820191906000526020600020905b815481529060010190602001808311610bac57829003601f168201915b505050505081526020016004820154815260200160058201548152602001600682015481525050815260200190600101906109ef565b50505050905090565b60008073ffffffffffffffffffffffffffffffffffffffff168273ffffffffffffffffffffffffffffffffffffffff161415610c79576040517f08c379a0000000000000000000000000000000000000000000000000000000008152600401610c7090614088565b60405180910390fd5b600360008373ffffffffffffffffffffffffffffffffffffffff1673ffffffffffffffffffffffffffffffffffffffff168152602001908152602001600020549050919050565b600e6020528060005260406000206000915090505481565b6000610ce4600b612724565b9050610cf03382612732565b6040518060e00160405280838152602001600c8481548110610d3b577f4e487b7100000000000000000000000000000000000000000000000000000000600052603260045260246000fd5b90600052602060002090600702016001018054610d5790614542565b80601f0160208091040260200160405190810160405280929190818152602001828054610d8390614542565b8015610dd05780601f10610da557610100808354040283529160200191610dd0565b820191906000526020600020905b815481529060010190602001808311610db357829003601f168201915b50505050508152602001600c8481548110610e14577f4e487b7100000000000000000000000000000000000000000000000000000000600052603260045260246000fd5b90600052602060002090600702016002018054610e3090614542565b80601f0160208091040260200160405190810160405280929190818152602001828054610e5c90614542565b8015610ea95780601f10610e7e57610100808354040283529160200191610ea9565b820191906000526020600020905b815481529060010190602001808311610e8c57829003601f168201915b50505050508152602001600c8481548110610eed577f4e487b7100000000000000000000000000000000000000000000000000000000600052603260045260246000fd5b90600052602060002090600702016003018054610f0990614542565b80601f0160208091040260200160405190810160405280929190818152602001828054610f3590614542565b8015610f825780601f10610f5757610100808354040283529160200191610f82565b820191906000526020600020905b815481529060010190602001808311610f6557829003601f168201915b50505050508152602001600c8481548110610fc6577f4e487b7100000000000000000000000000000000000000000000000000000000600052603260045260246000fd5b9060005260206000209060070201600401548152602001600c8481548110611017577f4e487b7100000000000000000000000000000000000000000000000000000000600052603260045260246000fd5b9060005260206000209060070201600401548152602001600c8481548110611068577f4e487b7100000000000000000000000000000000000000000000000000000000600052603260045260246000fd5b906000526020600020906007020160060154815250600d60008381526020019081526020016000206000820151816000015560208201518160010190805190602001906110b6929190613124565b5060408201518160020190805190602001906110d3929190613124565b5060608201518160030190805190602001906110f0929190613124565b506080820151816004015560a0820151816005015560c08201518160060155905050611135604051806060016040528060248152602001614d81602491398284612750565b80600e60003373ffffffffffffffffffffffffffffffffffffffff1673ffffffffffffffffffffffffffffffffffffffff16815260200190815260200160002081905550611183600b61223d565b7f20f37f9ab53d1e7b16065634de11451b002a9747121cc9e301d18cc49fc9fbd63382846040516111b693929190613cf7565b60405180910390a15050565b6060600180546111d190614542565b80601f01602080910402602001604051908101604052809291908181526020018280546111fd90614542565b801561124a5780601f1061121f5761010080835404028352916020019161124a565b820191906000526020600020905b81548152906001019060200180831161122d57829003601f168201915b5050505050905090565b600d60205280600052604060002060009150905080600001549080600101805461127d90614542565b80601f01602080910402602001604051908101604052809291908181526020018280546112a990614542565b80156112f65780601f106112cb576101008083540402835291602001916112f6565b820191906000526020600020905b8154815290600101906020018083116112d957829003601f168201915b50505050509080600201805461130b90614542565b80601f016020809104026020016040519081016040528092919081815260200182805461133790614542565b80156113845780601f1061135957610100808354040283529160200191611384565b820191906000526020600020905b81548152906001019060200180831161136757829003601f168201915b50505050509080600301805461139990614542565b80601f01602080910402602001604051908101604052809291908181526020018280546113c590614542565b80156114125780601f106113e757610100808354040283529160200191611412565b820191906000526020600020905b8154815290600101906020018083116113f557829003601f168201915b5050505050908060040154908060050154908060060154905087565b611436612329565b73ffffffffffffffffffffffffffffffffffffffff168273ffffffffffffffffffffffffffffffffffffffff1614156114a4576040517f08c379a000000000000000000000000000000000000000000000000000000000815260040161149b90614028565b60405180910390fd5b80600560006114b1612329565b73ffffffffffffffffffffffffffffffffffffffff1673ffffffffffffffffffffffffffffffffffffffff16815260200190815260200160002060008473ffffffffffffffffffffffffffffffffffffffff1673ffffffffffffffffffffffffffffffffffffffff16815260200190815260200160002060006101000a81548160ff0219169083151502179055508173ffffffffffffffffffffffffffffffffffffffff1661155e612329565b73ffffffffffffffffffffffffffffffffffffffff167f17307eab39ab6107e8899845ad3d59bd9653f200f220920489ca2b5937696c31836040516115a39190613d50565b60405180910390a35050565b60068060000180546115c090614542565b80601f01602080910402602001604051908101604052809291908181526020018280546115ec90614542565b80156116395780601f1061160e57610100808354040283529160200191611639565b820191906000526020600020905b81548152906001019060200180831161161c57829003601f168201915b50505050509080600101805461164e90614542565b80601f016020809104026020016040519081016040528092919081815260200182805461167a90614542565b80156116c75780601f1061169c576101008083540402835291602001916116c7565b820191906000526020600020905b8154815290600101906020018083116116aa57829003601f168201915b5050505050908060020154908060030154908060040154905085565b6116f46116ee612329565b836123ea565b611733576040517f08c379a000000000000000000000000000000000000000000000000000000000815260040161172a90614168565b60405180910390fd5b61173f848484846127ef565b50505050565b60606000600d60008481526020019081526020016000206040518060e00160405290816000820154815260200160018201805461178190614542565b80601f01602080910402602001604051908101604052809291908181526020018280546117ad90614542565b80156117fa5780601f106117cf576101008083540402835291602001916117fa565b820191906000526020600020905b8154815290600101906020018083116117dd57829003601f168201915b5050505050815260200160028201805461181390614542565b80601f016020809104026020016040519081016040528092919081815260200182805461183f90614542565b801561188c5780601f106118615761010080835404028352916020019161188c565b820191906000526020600020905b81548152906001019060200180831161186f57829003601f168201915b505050505081526020016003820180546118a590614542565b80601f01602080910402602001604051908101604052809291908181526020018280546118d190614542565b801561191e5780601f106118f35761010080835404028352916020019161191e565b820191906000526020600020905b81548152906001019060200180831161190157829003601f168201915b50505050508152602001600482015481526020016005820154815260200160068201548152505090506000611956826080015161284b565b905060006119678360a0015161284b565b905060006119788460c0015161284b565b905060006119c4856020015161198d8961284b565b876060015188604001518888886040516020016119b09796959493929190613bb1565b6040516020818303038152906040526129f8565b90506000816040516020016119d99190613c6e565b6040516020818303038152906040529050809650505050505050919050565b611a006131aa565b6000600e60003373ffffffffffffffffffffffffffffffffffffffff1673ffffffffffffffffffffffffffffffffffffffff1681526020019081526020016000205490506000811115611c5157600d60008281526020019081526020016000206040518060e001604052908160008201548152602001600182018054611a8590614542565b80601f0160208091040260200160405190810160405280929190818152602001828054611ab190614542565b8015611afe5780601f10611ad357610100808354040283529160200191611afe565b820191906000526020600020905b815481529060010190602001808311611ae157829003601f168201915b50505050508152602001600282018054611b1790614542565b80601f0160208091040260200160405190810160405280929190818152602001828054611b4390614542565b8015611b905780601f10611b6557610100808354040283529160200191611b90565b820191906000526020600020905b815481529060010190602001808311611b7357829003601f168201915b50505050508152602001600382018054611ba990614542565b80601f0160208091040260200160405190810160405280929190818152602001828054611bd590614542565b8015611c225780601f10611bf757610100808354040283529160200191611c22565b820191906000526020600020905b815481529060010190602001808311611c0557829003601f168201915b505050505081526020016004820154815260200160058201548152602001600682015481525050915050611c5f565b611c596131aa565b80925050505b90565b6000600e60003373ffffffffffffffffffffffffffffffffffffffff1673ffffffffffffffffffffffffffffffffffffffff1681526020019081526020016000205490506000600d60008381526020019081526020016000209050611d756040518060600160405280603c8152602001614e0d603c9139826001018054611ce890614542565b80601f0160208091040260200160405190810160405280929190818152602001828054611d1490614542565b8015611d615780601f10611d3657610100808354040283529160200191611d61565b820191906000526020600020905b815481529060010190602001808311611d4457829003601f168201915b505050505083600401548460060154612bb6565b611e4d6040518060400160405280601b81526020017f426f73732025732068617320257320485020616e64202573204144000000000081525060066000018054611dbe90614542565b80601f0160208091040260200160405190810160405280929190818152602001828054611dea90614542565b8015611e375780601f10611e0c57610100808354040283529160200191611e37565b820191906000526020600020905b815481529060010190602001808311611e1a57829003601f168201915b5050505050600660020154600660040154612bb6565b6000816004015411611e94576040517f08c379a0000000000000000000000000000000000000000000000000000000008152600401611e8b906140c8565b60405180910390fd5b600060066002015411611edc576040517f08c379a0000000000000000000000000000000000000000000000000000000008152600401611ed390613fc8565b60405180910390fd5b80600601546006600201541015611efd576000600660020181905550611f1c565b8060060154600660020154611f129190614458565b6006600201819055505b60066004015481600401541015611f3c5760008160040181905550611f5a565b6006600401548160040154611f519190614458565b81600401819055505b611f80604051806060016040528060288152602001614de5602891398260040154612c58565b7f838ab28464562786a6c4ab2311964b82fa60bd9b14aa7e856af1f3f18d41a4146006600201548260040154604051611fba92919061426b565b60405180910390a15050565b6000600560008473ffffffffffffffffffffffffffffffffffffffff1673ffffffffffffffffffffffffffffffffffffffff16815260200190815260200160002060008373ffffffffffffffffffffffffffffffffffffffff1673ffffffffffffffffffffffffffffffffffffffff16815260200190815260200160002060009054906101000a900460ff16905092915050565b6120f6848484846040516024016120749493929190613dd9565b6040516020818303038152906040527f8d142cdd000000000000000000000000000000000000000000000000000000007bffffffffffffffffffffffffffffffffffffffffffffffffffffffff19166020820180517bffffffffffffffffffffffffffffffffffffffffffffffffffffffff8381831617835250505050612cf4565b50505050565b61219683838360405160240161211493929190613d8d565b6040516020818303038152906040527f2ced7cef000000000000000000000000000000000000000000000000000000007bffffffffffffffffffffffffffffffffffffffffffffffffffffffff19166020820180517bffffffffffffffffffffffffffffffffffffffffffffffffffffffff8381831617835250505050612cf4565b505050565b612237848484846040516024016121b59493929190613f55565b6040516020818303038152906040527fa54ed4bd000000000000000000000000000000000000000000000000000000007bffffffffffffffffffffffffffffffffffffffffffffffffffffffff19166020820180517bffffffffffffffffffffffffffffffffffffffffffffffffffffffff8381831617835250505050612cf4565b50505050565b6001816000016000828254019250508190555050565b60007f01ffc9a7000000000000000000000000000000000000000000000000000000007bffffffffffffffffffffffffffffffffffffffffffffffffffffffff1916827bffffffffffffffffffffffffffffffffffffffffffffffffffffffff1916149050919050565b60008073ffffffffffffffffffffffffffffffffffffffff166002600084815260200190815260200160002060009054906101000a900473ffffffffffffffffffffffffffffffffffffffff1673ffffffffffffffffffffffffffffffffffffffff1614159050919050565b600033905090565b816004600083815260200190815260200160002060006101000a81548173ffffffffffffffffffffffffffffffffffffffff021916908373ffffffffffffffffffffffffffffffffffffffff160217905550808273ffffffffffffffffffffffffffffffffffffffff166123a483610919565b73ffffffffffffffffffffffffffffffffffffffff167f8c5be1e5ebec7d5bd14f71427d1e84f3dd0314c0f7b2291e5b200ac8c7c3b92560405160405180910390a45050565b60006123f5826122bd565b612434576040517f08c379a000000000000000000000000000000000000000000000000000000000815260040161242b90614048565b60405180910390fd5b600061243f83610919565b90508073ffffffffffffffffffffffffffffffffffffffff168473ffffffffffffffffffffffffffffffffffffffff1614806124ae57508373ffffffffffffffffffffffffffffffffffffffff16612496846106fc565b73ffffffffffffffffffffffffffffffffffffffff16145b806124bf57506124be8185611fc6565b5b91505092915050565b8273ffffffffffffffffffffffffffffffffffffffff166124e882610919565b73ffffffffffffffffffffffffffffffffffffffff161461253e576040517f08c379a000000000000000000000000000000000000000000000000000000000815260040161253590614128565b60405180910390fd5b600073ffffffffffffffffffffffffffffffffffffffff168273ffffffffffffffffffffffffffffffffffffffff1614156125ae576040517f08c379a00000000000000000000000000000000000000000000000000000000081526004016125a590614008565b60405180910390fd5b6125b9838383612d1d565b6125c4600082612331565b6001600360008573ffffffffffffffffffffffffffffffffffffffff1673ffffffffffffffffffffffffffffffffffffffff16815260200190815260200160002060008282546126149190614458565b925050819055506001600360008473ffffffffffffffffffffffffffffffffffffffff1673ffffffffffffffffffffffffffffffffffffffff168152602001908152602001600020600082825461266b9190614377565b92505081905550816002600083815260200190815260200160002060006101000a81548173ffffffffffffffffffffffffffffffffffffffff021916908373ffffffffffffffffffffffffffffffffffffffff160217905550808273ffffffffffffffffffffffffffffffffffffffff168473ffffffffffffffffffffffffffffffffffffffff167fddf252ad1be2c89b69c2b068fc378daa952ba7f163c4a11628f55a4df523b3ef60405160405180910390a4505050565b600081600001549050919050565b61274c828260405180602001604052806000815250612d22565b5050565b6127ea83838360405160240161276893929190613f17565b6040516020818303038152906040527f969cdd03000000000000000000000000000000000000000000000000000000007bffffffffffffffffffffffffffffffffffffffffffffffffffffffff19166020820180517bffffffffffffffffffffffffffffffffffffffffffffffffffffffff8381831617835250505050612cf4565b505050565b6127fa8484846124c8565b61280684848484612d7d565b612845576040517f08c379a000000000000000000000000000000000000000000000000000000000815260040161283c90613fa8565b60405180910390fd5b50505050565b60606000821415612893576040518060400160405280600181526020017f300000000000000000000000000000000000000000000000000000000000000081525090506129f3565b600082905060005b600082146128c55780806128ae906145a5565b915050600a826128be91906143cd565b915061289b565b60008167ffffffffffffffff811115612907577f4e487b7100000000000000000000000000000000000000000000000000000000600052604160045260246000fd5b6040519080825280601f01601f1916602001820160405280156129395781602001600182028036833780820191505090505b5090505b600085146129ec576001826129529190614458565b9150600a8561296191906145ee565b603061296d9190614377565b60f81b8183815181106129a9577f4e487b7100000000000000000000000000000000000000000000000000000000600052603260045260246000fd5b60200101907effffffffffffffffffffffffffffffffffffffffffffffffffffffffffffff1916908160001a905350600a856129e591906143cd565b945061293d565b8093505050505b919050565b60606000825190506000811415612a215760405180602001604052806000815250915050612bb1565b60006003600283612a329190614377565b612a3c91906143cd565b6004612a4891906143fe565b90506000602082612a599190614377565b67ffffffffffffffff811115612a98577f4e487b7100000000000000000000000000000000000000000000000000000000600052604160045260246000fd5b6040519080825280601f01601f191660200182016040528015612aca5781602001600182028036833780820191505090505b5090506000604051806060016040528060408152602001614da5604091399050600181016020830160005b86811015612b6e5760038101905062ffffff818a015116603f8160121c168401518060081b905060ff603f83600c1c1686015116810190508060081b905060ff603f8360061c1686015116810190508060081b905060ff603f831686015116810190508060e01b90508084526004840193505050612af5565b506003860660018114612b885760028114612b9857612ba3565b613d3d60f01b6002830352612ba3565b603d60f81b60018303525b508484525050819450505050505b919050565b612c5284848484604051602401612bd09493929190613e33565b6040516020818303038152906040527fd5cf17d0000000000000000000000000000000000000000000000000000000007bffffffffffffffffffffffffffffffffffffffffffffffffffffffff19166020820180517bffffffffffffffffffffffffffffffffffffffffffffffffffffffff8381831617835250505050612cf4565b50505050565b612cf08282604051602401612c6e929190613ee7565b6040516020818303038152906040527f9710a9d0000000000000000000000000000000000000000000000000000000007bffffffffffffffffffffffffffffffffffffffffffffffffffffffff19166020820180517bffffffffffffffffffffffffffffffffffffffffffffffffffffffff8381831617835250505050612cf4565b5050565b60008151905060006a636f6e736f6c652e6c6f679050602083016000808483855afa5050505050565b505050565b612d2c8383612f14565b612d396000848484612d7d565b612d78576040517f08c379a0000000000000000000000000000000000000000000000000000000008152600401612d6f90613fa8565b60405180910390fd5b505050565b6000612d9e8473ffffffffffffffffffffffffffffffffffffffff166130e2565b15612f07578373ffffffffffffffffffffffffffffffffffffffff1663150b7a02612dc7612329565b8786866040518563ffffffff1660e01b8152600401612de99493929190613cab565b602060405180830381600087803b158015612e0357600080fd5b505af1925050508015612e3457506040513d601f19601f82011682018060405250810190612e3191906134a5565b60015b612eb7573d8060008114612e64576040519150601f19603f3d011682016040523d82523d6000602084013e612e69565b606091505b50600081511415612eaf576040517f08c379a0000000000000000000000000000000000000000000000000000000008152600401612ea690613fa8565b60405180910390fd5b805181602001fd5b63150b7a0260e01b7bffffffffffffffffffffffffffffffffffffffffffffffffffffffff1916817bffffffffffffffffffffffffffffffffffffffffffffffffffffffff191614915050612f0c565b600190505b949350505050565b600073ffffffffffffffffffffffffffffffffffffffff168273ffffffffffffffffffffffffffffffffffffffff161415612f84576040517f08c379a0000000000000000000000000000000000000000000000000000000008152600401612f7b906140e8565b60405180910390fd5b612f8d816122bd565b15612fcd576040517f08c379a0000000000000000000000000000000000000000000000000000000008152600401612fc490613fe8565b60405180910390fd5b612fd960008383612d1d565b6001600360008473ffffffffffffffffffffffffffffffffffffffff1673ffffffffffffffffffffffffffffffffffffffff16815260200190815260200160002060008282546130299190614377565b92505081905550816002600083815260200190815260200160002060006101000a81548173ffffffffffffffffffffffffffffffffffffffff021916908373ffffffffffffffffffffffffffffffffffffffff160217905550808273ffffffffffffffffffffffffffffffffffffffff16600073ffffffffffffffffffffffffffffffffffffffff167fddf252ad1be2c89b69c2b068fc378daa952ba7f163c4a11628f55a4df523b3ef60405160405180910390a45050565b600080823b905060008111915050919050565b6040518060a0016040528060608152602001606081526020016000815260200160008152602001600081525090565b82805461313090614542565b90600052602060002090601f0160209004810192826131525760008555613199565b82601f1061316b57805160ff1916838001178555613199565b82800160010185558215613199579182015b8281111561319857825182559160200191906001019061317d565b5b5090506131a691906131e7565b5090565b6040518060e00160405280600081526020016060815260200160608152602001606081526020016000815260200160008152602001600081525090565b5b808211156132005760008160009055506001016131e8565b5090565b6000613217613212846142b9565b614294565b90508281526020810184848401111561322f57600080fd5b61323a848285614500565b509392505050565b60008135905061325181614d24565b92915050565b60008135905061326681614d3b565b92915050565b60008135905061327b81614d52565b92915050565b60008151905061329081614d52565b92915050565b600082601f8301126132a757600080fd5b81356132b7848260208601613204565b91505092915050565b6000813590506132cf81614d69565b92915050565b6000602082840312156132e757600080fd5b60006132f584828501613242565b91505092915050565b6000806040838503121561331157600080fd5b600061331f85828601613242565b925050602061333085828601613242565b9150509250929050565b60008060006060848603121561334f57600080fd5b600061335d86828701613242565b935050602061336e86828701613242565b925050604061337f868287016132c0565b9150509250925092565b6000806000806080858703121561339f57600080fd5b60006133ad87828801613242565b94505060206133be87828801613242565b93505060406133cf878288016132c0565b925050606085013567ffffffffffffffff8111156133ec57600080fd5b6133f887828801613296565b91505092959194509250565b6000806040838503121561341757600080fd5b600061342585828601613242565b925050602061343685828601613257565b9150509250929050565b6000806040838503121561345357600080fd5b600061346185828601613242565b9250506020613472858286016132c0565b9150509250929050565b60006020828403121561348e57600080fd5b600061349c8482850161326c565b91505092915050565b6000602082840312156134b757600080fd5b60006134c584828501613281565b91505092915050565b6000602082840312156134e057600080fd5b60006134ee848285016132c0565b91505092915050565b60006135038383613a3f565b905092915050565b6135148161448c565b82525050565b6000613525826142fa565b61352f8185614328565b935083602082028501613541856142ea565b8060005b8581101561357d578484038952815161355e85826134f7565b94506135698361431b565b925060208a01995050600181019050613545565b50829750879550505050505092915050565b6135988161449e565b82525050565b60006135a982614305565b6135b38185614339565b93506135c381856020860161450f565b6135cc816146db565b840191505092915050565b60006135e282614310565b6135ec818561434a565b93506135fc81856020860161450f565b613605816146db565b840191505092915050565b600061361b82614310565b613625818561435b565b935061363581856020860161450f565b61363e816146db565b840191505092915050565b600061365482614310565b61365e818561436c565b935061366e81856020860161450f565b80840191505092915050565b600061368760328361435b565b9150613692826146ec565b604082019050919050565b60006136aa60028361436c565b91506136b58261473b565b600282019050919050565b60006136cd60288361435b565b91506136d882614764565b604082019050919050565b60006136f0601c8361435b565b91506136fb826147b3565b602082019050919050565b6000613713600e8361436c565b915061371e826147dc565b600e82019050919050565b600061373660248361435b565b915061374182614805565b604082019050919050565b600061375960198361435b565b915061376482614854565b602082019050919050565b600061377c602c8361435b565b91506137878261487d565b604082019050919050565b600061379f60408361436c565b91506137aa826148cc565b604082019050919050565b60006137c260388361435b565b91506137cd8261491b565b604082019050919050565b60006137e5602a8361435b565b91506137f08261496a565b604082019050919050565b600061380860298361435b565b9150613813826149b9565b604082019050919050565b600061382b602d8361435b565b915061383682614a08565b604082019050919050565b600061384e60048361436c565b915061385982614a57565b600482019050919050565b600061387160208361435b565b915061387c82614a80565b602082019050919050565b6000613894602c8361435b565b915061389f82614aa9565b604082019050919050565b60006138b760368361436c565b91506138c282614af8565b603682019050919050565b60006138da60298361435b565b91506138e582614b47565b604082019050919050565b60006138fd600a8361436c565b915061390882614b96565b600a82019050919050565b600061392060218361435b565b915061392b82614bbf565b604082019050919050565b6000613943601d8361436c565b915061394e82614c0e565b601d82019050919050565b600061396660318361435b565b915061397182614c37565b604082019050919050565b6000613989602d8361436c565b915061399482614c86565b602d82019050919050565b60006139ac602e8361436c565b91506139b782614cd5565b602e82019050919050565b600060a08301600083015184820360008601526139df82826135d7565b915050602083015184820360208601526139f982826135d7565b9150506040830151613a0e6040860182613b93565b506060830151613a216060860182613b93565b506080830151613a346080860182613b93565b508091505092915050565b600060e083016000830151613a576000860182613b93565b5060208301518482036020860152613a6f82826135d7565b91505060408301518482036040860152613a8982826135d7565b91505060608301518482036060860152613aa382826135d7565b9150506080830151613ab86080860182613b93565b5060a0830151613acb60a0860182613b93565b5060c0830151613ade60c0860182613b93565b508091505092915050565b600060e083016000830151613b016000860182613b93565b5060208301518482036020860152613b1982826135d7565b91505060408301518482036040860152613b3382826135d7565b91505060608301518482036060860152613b4d82826135d7565b9150506080830151613b626080860182613b93565b5060a0830151613b7560a0860182613b93565b5060c0830151613b8860c0860182613b93565b508091505092915050565b613b9c816144f6565b82525050565b613bab816144f6565b82525050565b6000613bbc826138f0565b9150613bc8828a613649565b9150613bd38261369d565b9150613bdf8289613649565b9150613bea82613792565b9150613bf68288613649565b9150613c01826138aa565b9150613c0d8287613649565b9150613c188261399f565b9150613c248286613649565b9150613c2f82613706565b9150613c3b8285613649565b9150613c468261397c565b9150613c528284613649565b9150613c5d82613841565b915081905098975050505050505050565b6000613c7982613936565b9150613c858284613649565b915081905092915050565b6000602082019050613ca5600083018461350b565b92915050565b6000608082019050613cc0600083018761350b565b613ccd602083018661350b565b613cda6040830185613ba2565b8181036060830152613cec818461359e565b905095945050505050565b6000606082019050613d0c600083018661350b565b613d196020830185613ba2565b613d266040830184613ba2565b949350505050565b60006020820190508181036000830152613d48818461351a565b905092915050565b6000602082019050613d65600083018461358f565b92915050565b60006020820190508181036000830152613d858184613610565b905092915050565b60006060820190508181036000830152613da78186613610565b90508181036020830152613dbb8185613610565b90508181036040830152613dcf8184613610565b9050949350505050565b60006080820190508181036000830152613df38187613610565b90508181036020830152613e078186613610565b9050613e166040830185613ba2565b8181036060830152613e288184613610565b905095945050505050565b60006080820190508181036000830152613e4d8187613610565b90508181036020830152613e618186613610565b9050613e706040830185613ba2565b613e7d6060830184613ba2565b95945050505050565b600060a0820190508181036000830152613ea08188613610565b90508181036020830152613eb48187613610565b9050613ec36040830186613ba2565b613ed06060830185613ba2565b613edd6080830184613ba2565b9695505050505050565b60006040820190508181036000830152613f018185613610565b9050613f106020830184613ba2565b9392505050565b60006060820190508181036000830152613f318186613610565b9050613f406020830185613ba2565b613f4d6040830184613ba2565b949350505050565b60006080820190508181036000830152613f6f8187613610565b9050613f7e6020830186613ba2565b613f8b6040830185613ba2565b8181036060830152613f9d8184613610565b905095945050505050565b60006020820190508181036000830152613fc18161367a565b9050919050565b60006020820190508181036000830152613fe1816136c0565b9050919050565b60006020820190508181036000830152614001816136e3565b9050919050565b6000602082019050818103600083015261402181613729565b9050919050565b600060208201905081810360008301526140418161374c565b9050919050565b600060208201905081810360008301526140618161376f565b9050919050565b60006020820190508181036000830152614081816137b5565b9050919050565b600060208201905081810360008301526140a1816137d8565b9050919050565b600060208201905081810360008301526140c1816137fb565b9050919050565b600060208201905081810360008301526140e18161381e565b9050919050565b6000602082019050818103600083015261410181613864565b9050919050565b6000602082019050818103600083015261412181613887565b9050919050565b60006020820190508181036000830152614141816138cd565b9050919050565b6000602082019050818103600083015261416181613913565b9050919050565b6000602082019050818103600083015261418181613959565b9050919050565b600060208201905081810360008301526141a281846139c2565b905092915050565b600060208201905081810360008301526141c48184613ae9565b905092915050565b60006020820190506141e16000830184613ba2565b92915050565b600060e0820190506141fc600083018a613ba2565b818103602083015261420e8189613610565b905081810360408301526142228188613610565b905081810360608301526142368187613610565b90506142456080830186613ba2565b61425260a0830185613ba2565b61425f60c0830184613ba2565b98975050505050505050565b60006040820190506142806000830185613ba2565b61428d6020830184613ba2565b9392505050565b600061429e6142af565b90506142aa8282614574565b919050565b6000604051905090565b600067ffffffffffffffff8211156142d4576142d36146ac565b5b6142dd826146db565b9050602081019050919050565b6000819050602082019050919050565b600081519050919050565b600081519050919050565b600081519050919050565b6000602082019050919050565b600082825260208201905092915050565b600082825260208201905092915050565b600082825260208201905092915050565b600082825260208201905092915050565b600081905092915050565b6000614382826144f6565b915061438d836144f6565b9250827fffffffffffffffffffffffffffffffffffffffffffffffffffffffffffffffff038211156143c2576143c161461f565b5b828201905092915050565b60006143d8826144f6565b91506143e3836144f6565b9250826143f3576143f261464e565b5b828204905092915050565b6000614409826144f6565b9150614414836144f6565b9250817fffffffffffffffffffffffffffffffffffffffffffffffffffffffffffffffff048311821515161561444d5761444c61461f565b5b828202905092915050565b6000614463826144f6565b915061446e836144f6565b9250828210156144815761448061461f565b5b828203905092915050565b6000614497826144d6565b9050919050565b60008115159050919050565b60007fffffffff0000000000000000000000000000000000000000000000000000000082169050919050565b600073ffffffffffffffffffffffffffffffffffffffff82169050919050565b6000819050919050565b82818337600083830152505050565b60005b8381101561452d578082015181840152602081019050614512565b8381111561453c576000848401525b50505050565b6000600282049050600182168061455a57607f821691505b6020821081141561456e5761456d61467d565b5b50919050565b61457d826146db565b810181811067ffffffffffffffff8211171561459c5761459b6146ac565b5b80604052505050565b60006145b0826144f6565b91507fffffffffffffffffffffffffffffffffffffffffffffffffffffffffffffffff8214156145e3576145e261461f565b5b600182019050919050565b60006145f9826144f6565b9150614604836144f6565b9250826146145761461361464e565b5b828206905092915050565b7f4e487b7100000000000000000000000000000000000000000000000000000000600052601160045260246000fd5b7f4e487b7100000000000000000000000000000000000000000000000000000000600052601260045260246000fd5b7f4e487b7100000000000000000000000000000000000000000000000000000000600052602260045260246000fd5b7f4e487b7100000000000000000000000000000000000000000000000000000000600052604160045260246000fd5b6000601f19601f8301169050919050565b7f4552433732313a207472616e7366657220746f206e6f6e20455243373231526560008201527f63656976657220696d706c656d656e7465720000000000000000000000000000602082015250565b7f2023000000000000000000000000000000000000000000000000000000000000600082015250565b7f4572726f723a20626f7373206d757374206861766520485020746f206174746160008201527f636b20626f73732e000000000000000000000000000000000000000000000000602082015250565b7f4552433732313a20746f6b656e20616c7265616479206d696e74656400000000600082015250565b7f2c20226d61785f76616c7565223a000000000000000000000000000000000000600082015250565b7f4552433732313a207472616e7366657220746f20746865207a65726f2061646460008201527f7265737300000000000000000000000000000000000000000000000000000000602082015250565b7f4552433732313a20617070726f766520746f2063616c6c657200000000000000600082015250565b7f4552433732313a206f70657261746f7220717565727920666f72206e6f6e657860008201527f697374656e7420746f6b656e0000000000000000000000000000000000000000602082015250565b7f222c20226465736372697074696f6e223a20225468697320697320612056696b60008201527f696e6773204e46542063686172616374657221222c2022696d616765223a2022602082015250565b7f4552433732313a20617070726f76652063616c6c6572206973206e6f74206f7760008201527f6e6572206e6f7220617070726f76656420666f7220616c6c0000000000000000602082015250565b7f4552433732313a2062616c616e636520717565727920666f7220746865207a6560008201527f726f206164647265737300000000000000000000000000000000000000000000602082015250565b7f4552433732313a206f776e657220717565727920666f72206e6f6e657869737460008201527f656e7420746f6b656e0000000000000000000000000000000000000000000000602082015250565b7f4572726f723a20636861726163746572206d757374206861766520485020746f60008201527f2061747461636b20626f73732e00000000000000000000000000000000000000602082015250565b7f7d205d7d00000000000000000000000000000000000000000000000000000000600082015250565b7f4552433732313a206d696e7420746f20746865207a65726f2061646472657373600082015250565b7f4552433732313a20617070726f76656420717565727920666f72206e6f6e657860008201527f697374656e7420746f6b656e0000000000000000000000000000000000000000602082015250565b7f222c202261747472696275746573223a205b207b202274726169745f7479706560008201527f223a2022436c617373222c202276616c7565223a202200000000000000000000602082015250565b7f4552433732313a207472616e73666572206f6620746f6b656e2074686174206960008201527f73206e6f74206f776e0000000000000000000000000000000000000000000000602082015250565b7f7b226e616d65223a202200000000000000000000000000000000000000000000600082015250565b7f4552433732313a20617070726f76616c20746f2063757272656e74206f776e6560008201527f7200000000000000000000000000000000000000000000000000000000000000602082015250565b7f646174613a6170706c69636174696f6e2f6a736f6e3b6261736536342c000000600082015250565b7f4552433732313a207472616e736665722063616c6c6572206973206e6f74206f60008201527f776e6572206e6f7220617070726f766564000000000000000000000000000000602082015250565b7f7d2c207b202274726169745f74797065223a202241747461636b2044616d616760008201527f65222c202276616c7565223a2000000000000000000000000000000000000000602082015250565b7f227d2c207b202274726169745f74797065223a20224865616c746820506f696e60008201527f7473222c202276616c7565223a20000000000000000000000000000000000000602082015250565b614d2d8161448c565b8114614d3857600080fd5b50565b614d448161449e565b8114614d4f57600080fd5b50565b614d5b816144aa565b8114614d6657600080fd5b50565b614d72816144f6565b8114614d7d57600080fd5b5056fe4d696e7465642056696b696e67204e4654200a49443a202325730a496e6465783a2025734142434445464748494a4b4c4d4e4f505152535455565758595a6162636465666768696a6b6c6d6e6f707172737475767778797a303132333435363738392b2f426f73732061747461636b656420706c617965722e204e657720706c617965722068703a2025730a0a506c6179657220772f206368617261637465722025732061626f757420746f2061747461636b2e2048617320257320485020616e64202573204144a2646970667358221220c1b623bffc6a50fc9db6ea316b3b56b7be8d9e55befc2160a3aa01c2ec79a14a64736f6c634300080400330a496e697469616c697a696e672056696b696e670a4e616d653a2025730a547970653a20257348503a2025730a41747461636b2044616d6167653a2025730a496d6167653a2025730a446f6e6520696e697469616c697a696e6720626f737320257320772f2048502025732c20696d67202573",
  "linkReferences": {},
  "deployedLinkReferences": {}
}